:200000000C940A0F0C94320F0C94320F0C94320F0C94320F0C94320F0C94320F0C94320F00
:200020000C94320F0C94320F0C94320F0C948C6F0C9442730C94B96F0C94320F0C94591972
:200040000C9447190C94320F0C941E790C944A770C94320F0C94320F0C94320F0C94320FA3
:200060000C9402730C94C4190C9424700C94D2720C94320F0C94320F0C94320F0C94320F52
:200080000C94320F0C94320F0C94320F027506750E7518752F7549755E756D75827599759F
:2000A000A375C175C775CC75D275D87532763C76E175E775ED75F675FA75FF750776197619
:2000C0001F7625762A760A750A760F76147653706C61736800804000000000000000000017
:2000E00000000000E0E0E0E0E0C000000000E0E0E0E0E000000080C0E0E06000E0E0E0C0C0
:20010000800000E0E0E0E0000000E0E0E0E000000000000000000000E0E0E0A04060E0E0BF
:20012000C0800000E0E0E0A0000000E0E0E0A0000000000080C0E0E06000E0E0E0C000003F
:2001400060E0E0E0E0E0E0E0E0E0000000000000000000000000000000000000000000005F
:20016000000000007DFFFFBF7FFFFCE0F8FFFF3FFFFFFF1100D4FFFFFF450000000707077D
:20018000070000FFFFFFFB000000FFFFFFBD00008080808080000011FFFFFF5AC0C0F2FF4D
:2001A0007F1F0040FFFFFFB6000011FFFFFFAA0000000088FFFFFFD5000000FFFFFFFB00A4
:2001C000000000BDFFFFFF0000000000000000000000000000000000000000000000000065
:2001E00000000000BFFFFFDB00033F7F7F0F0022FFFFFF9100023F7FFFF4E000C0FCFC7CA1
:200200001C00003F7FFFFEC000C0FFFF7F1B00000101010301000049FFFFFF55000000004D
:2002200000000022FFFFFF56000021FFFFFFF5E0E0E000083F7FFFEAC000E0FF7F7F0E003C
:20024000000000FBFFFFFF00000000000000000000000000000000000000000000000000A6
:20026000000000000000000000000000000000000000000018781CBC008000000000000096
:2002800000000000000000000000000000000000000000000000000000000000000000005E
:2002A00000000000000000000000000000000000000000000000000000000000000000003E
:2002C00000000000000000000000000000000000000000000000000000000000000000001E
:2002E00000000000000000000000000000000000000000C0E0E0310A3F51D1AEB0B203834C
:2003000083030703070501068186C2C64424842484288418001800F09810E00000000800BB
:20032000080008080804080804080C080C040C04080C0A08040A080A0C0E0E0E0E0E0E0E95
:200340000C0E0C18000000000000000000000000000000000000000000000000000000005F
:20036000000000000000000000000000000000000000000000000000060406040406060653
:20038000040D0D08091210322021604140C180C0C00C0682A379B33A323B62C939F9FDC3D0
:2003A0008602040408081020604080800000000000000000000000000000000000000000CD
:2003C00000000000000000000000000000000000000000000000000000000000000000001D
:2003E0000000000000000000000000000000000000000000000000000000000000000000FD
:20040000000000000000000000000000000000213323464E4CCCF8B91831293F6F40C1C324
:20042000C3C3C2C342C2C240C1406063371C00000000000000000000000000000000000094
:2004400000000000000000000000000000000000000000000000000000000000000000009C
:2004600000000000000000000000000000000000000000000000000000000000000000007C
:2004800000000000000000000000000000000000000000000000000101010302020607093C
:2004A000081810191D0A010202020404050E000000000000000000000000000000000000AA
:2004C0000000000000000000000000000000000000000000000000001B1E272D36394B4E87
:2004E000636C7278878D939CB1B4C6C9D2D8E1E44F4646004F4E20000102030401030204F1
:20050000040203010403020103010200040506076D656E75537461636B206F766572666C52
:200520006F77006D656E75537461636B20756E646572666C6F77004D4553534147450041EE
:200540004C45525400707265737320616E79204B6579004C4F4144494E47002020202020E8
:20056000202020202020202020202020202020202000506C6561736520526573657420536B
:200580007769746368657300537769746368205761726E696E6700204F6C642056657273FD
:2005A000696F6E20454550524F4D202020434845434B2053455454494E47532F43414C4976
:2005C0004200416C61726D732044697361626C6564005265736574207468726F74746C65A8
:2005E000005468726F74746C65206E6F742069646C6500507265737320616E79206B657998
:2006000020746F20736B697000414C45525400454550524F4D206C6F77206D656D00034F9D
:200620004646414253525573525525454C73454C25544873544825414C73414C2550312095
:2006400050312550322050322550332050332500544852525544454C4549443049443149ED
:20066000443241494C47454154524E5357315357325357335357345357355357365357375B
:20068000535738535739535741535742535743002D2D2D004348002D2D2D2000525544200D
:2006A000454C45205448522041494C20000450312020503220205033202048414C46465540
:2006C0004C4C43594331435943324359433350504D3150504D3250504D3350504D34505031
:2006E0004D3550504D3650504D3750504D384348312043483220434833204348342043480B
:200700003520434836204348372043483820434839204348313043483131434831324348A8
:200720003133434831344348313543483136002D2D2D2D00564552533A2056312E353635DF
:20074000302D6572657A00444154453A2031342E30352E323031320054494D453A20323038
:200760003A35303A3037002053564E3A20657239782D7237363200204D4F443A20465253BD
:200780004B59204E542020000441313D2041323D20525353495453534954696D3154696D07
:2007A00032416C742047616C744773706454313D2054323D2052504D204655454C4D61689A
:2007C000314D61683243766C740000010203FEFF0406080A0B0C0D0E0F2341203D0052781C
:2007E0003D0054783D004E4F20444154410056343D0756353D0E56363D0056313D0756321C
:200800003D0E56333D00096D7068005370643D096B7473204D61783D00416C743D096D2043
:2008200020204D61783D004C6F6E3D004C61743D0041323D0041313D0052504D00467565E3
:200840006C0054546D0003457870457846466E654D656443727300544F540053544B115340
:20086000542500544D45115453570053544154005B4D454E555D20746F2072656672657337
:200880006800537461636B0F6200746D61696E0F6D7300746D7231204A69747465720F75E7
:2008A0007300746D72314C6174206D696E0F757300746D72314C6174206D61780F757300C3
:2008C000535441543200FB544921FF263527D527F128545245303132414700065761726EB7
:2008E00031205761726E322043686561702052696E672020536369466920526F626F7420D8
:20090000436869727020546164612020437269636B74536972656E20416C6D436C6B52619F
:20092000746174615469636B202048617074633148617074633248617074633300120812B0
:2009400000081C0808081C080000082200490022080000000000227F220000000822004964
:20096000002208000008220049002208000000227F22000000000008220049002208000050
:20098000081C0808081C08004D6F646500416C657274205B5265645D00416C657274205B14
:2009A0004F72675D00416C657274205B59656C5D00496E742E204672736B7920616C617270
:2009C0006D00456E61626C652050504D53494D0042616E6447617000506F745363726F6CAA
:2009E0006C00416C61726D205761726E696E67004D656D6F7279205761726E696E670044F5
:200A0000656661756C7420537700537769746368205761726E696E67005468726F74746C12
:200A200065205761726E696E670053706C617368204E616D650053706C617368207363727C
:200A400065656E004C69676874206F6E2053746B204D76004C69676874206F6666206166FA
:200A6000746572004C696768742073776974636800466C617368206F6E2062656570004298
:200A800065657020636F756E74646F776E004D696E7574652062656570005468726F747468
:200AA0006C652072657665727365000453494E474F534D5046494C540046696C7465722020
:200AC00041444300496E616374697669747920616C61726D004261747465727920776172B8
:200AE0006E696E6700436F6E74726173740048617074696320537472656E67746800537071
:200B000065616B65722050697463680006426565706572506953706B7200536F756E6420DA
:200B20004D6F646500065175696574204E6F4B6579207853686F727453686F7274204E6F87
:200B4000726D20204C6F6E672020784C6F6E672000426565706572004F776E6572204E6151
:200B60006D6500524144494F2053455455500043616C004D756C7469706C696572000363E6
:200B8000683163683263683363683400036F6666202B3D203A3D006D6F64650A252073728C
:200BA000632020737700536C61766500545241494E45520000030303030056455253494FB4
:200BC0004E005472696D2D202B00204D656E75204578697420446F776E20202055705269AC
:200BE000676874204C656674004449414700424700414E41005B4D454E555D205748454E5A
:200C000020444F4E45004D4F564520535449434B532F504F545300534554204D4944504F6C
:200C2000494E54005B4D454E555D20544F2053544152540053544152542043414C49425210
:200C40004154494F4E0043414C4942524154494F4E00BF380A4EF94C3F33292C475F585B3D
:200C60005053595EAA24E5220966726565004D4F44454C53454C00434F4C20446972656360
:200C800074696F6E0041494C20446972656374696F6E00454C4520446972656374696F6E6C
:200CA0000053776173682052696E6700436F6C6C65637469766500062D2D2D202020313224
:200CC000302020203132305820203134302020203930202020200053776173682054797018
:200CE000650048454C49205345545550000054696D65720044454C455445204D4F44454C77
:200D00000F5B4D454E555D00543254685472696700547261696E657200452E204C696D690C
:200D2000747300504F534E45470053686966742053656C004C50342F4C5035202044534DCA
:200D4000326F6E6C792044534D322F44534D580044534D20547970650053656E64205278E4
:200D6000204E756D626572205B4D454E555D0050504D2046724C656E0D6D536563002052F2
:200D8000784E756D00043443482036434820384348203130434831324348313443483136D3
:200DA000434800755300755365630050504D20202050585820202044534D32202050504D60
:200DC00031362050504D53494D0050726F746F0052455441313233004265657020436E741F
:200DE000005472696D2053770006457870202020457846696E6546696E6520204D6564695A
:200E0000756D436F61727365005472696D20496E6300542D4578706F00542D5472696D0083
:200E20000A436F756E7420446F776E436F756E74205570202000547269676765724200544F
:200E4000726967676572004E616D65005345545550000009010000000000000006020044AA
:200E600075706C69636174696E67206D6F64656C005B4D454E555D20205B455849545D00F2
:200E80005945530B4E4F0044454C455445204D4F44454C004455504C4943415445204D4F1E
:200EA00044454C00204142434445464748494A4B4C4D4E4F505152535455565758595A61FD
:200EC00062636465666768696A6B6C6D6E6F707172737475767778797A30313233343536EF
:200EE0003738395F2D2E00657870202025202073773120737732004558504F2F4452000046
:200F00000344522048696768004452204C6F77004452204D69640044725377320044725325
:200F2000773100576569676874004578706F004558504F2F445200002B2A52004D4958452A
:200F400052005B4D454E555D085B455849545D005945530B4E4F0044454C455445204D4956
:200F6000583F005072657373205B455849545D20746F2061626F7274004D6178206D6978EC
:200F80006572732072656163683A200044454C455445204D4958205B4D454E555D00025367
:200FA0006C6F77202055700002536C6F772020446F776E000244656C61792055700002443F
:200FC000656C617920446F776E000841646420202020204D756C7469706C795265706C61A9
:200FE00063652000024D756C74707800025761726E696E6700025377697463680002437577
:201000007276657300025472696D0002466C4D6F64657472696D004F666673657400466D63
:201020005472696D56616C00025765696768740002536F757263650045444954204D4958E0
:201040002000494E53455254204D49582000072D2D2D2D202020763E6F66732020763C6FF5
:20106000667320207C767C3E6F66737C767C3C6F6673414E44202020204F522020202020DD
:20108000584F522020202076313D3D7632207631213D76322076313E7632202076313C76FB
:2010A00032202076313E3D76322076313C3D76322000535700435553544F4D205357495400
:2010C00043484553000002534146455459205357495443484553000002032D2D2D59656CDF
:2010E0004F726752656400477073416C744D61696E00566F6C742054687265733D00034F83
:20110000464631323234303000416C74416C61726D004E756D20426C61646573006D41685B
:2011200020416C61726D00547852535349616C726D0054454C454D455452593200000101FA
:201140000100013C3E00616C726D0001762D5641004120206368616E6E656C00034D6574A9
:20116000496D700005467248756257534868690055737250726F746F0054454C454D45544C
:2011800052590000010102020102434F5059205452494D205B4D454E555D004C494D495478
:2011A000530000030303030303030303030303030303030043560043555256455300505299
:2011C0004553455400454449542D3E004355525645000900032D2D2D494E56002D2D2D7849
:2011E0003E30783C307C787C663E30663C307C667C6331206332206333206334206335209B
:201200006336206337206338206339206331306331316331326331336331346331356331A9
:201220003600454550524F4D206F766572666C6F770067656E7772697465206572726F726D
:2012400000454550524F4D20466F726D617474696E670042616420454570726F6D20446157
:201260007461004D4F44454C2020202020004D45202020202020202000500850000000004E
:20128000000000006F000007000700147F147F14242A7F2A12231308646236495522500044
:2012A00005030000001C2241000041221C0014083E081408083E08080050300000080808BC
:2012C000080800606000002010080402003E49453E0000427F4000625149460041494936AA
:2012E000001814127F0027454539003E49493200017905030036494936000649291E00002F
:201300003636000000563600000814224114141414144122140800020151090600060909F8
:20132000067E0909097E7F494949363E414141227F4141221C7F494949417F090909013E2A
:201340004149497A7F0808087F00417F41002040413F017F081422417F404040407F020C3E
:20136000027F7F0408107F3E4141413E7F090909063E4151215E7F09192946264949493261
:2013800001017F01013F4040403F1F2040201F3F4030403F6314081463070870080761516A
:2013A000494543007F41410002040810200041417F000402010204404040404000010204C8
:2013C0000020545454787F484444383844444420384444487F3854545418087E0901020C5D
:2013E0005252523E7F0804047800447D40002040443D007F1028440000417F40007C04183D
:2014000004787C0804047838444444387C14141408081414187C7C08040408485454542094
:20142000043F4440203C4040207C1C2040201C3C4020403C44281028440C5050503C4464D5
:20144000544C44000836410000007F000000413608000808221C08081C220808A0608000FF
:2014600000000000000000000000000000FFFF0000000000001F3F00003F1F00003030FF53
:20148000FF3030FFFF30303078CCCCFFFFCCCC8C0C060F0F86C0E070381C0C3CFEC7E3F330
:2014A0003B1E0C00000000333B1F0F000000000000F0F81C0E07030000000003070E1CF8E3
:2014C000F000003030E0C0FCFCC0E03030C0C0C0C0FCFCC0C0C0C00000000000000000002C
:2014E00000C0C0C0C0C0C0C0C0C0C00000000000000000000000000080C0E070381C0C007C
:20150000000000000000000000000000003838000000000000000000000000000003033F16
:201520003F03033F3F03030C0C0C0C3F3F0C0C07030C0E07030100183C3C180F1F3831337B
:20154000331E1E333300000000000000000000000003070E1C38300000000030381C0E0781
:20156000030000030301000F0F00010303000000000F0F000000000000333B1F0F00000082
:2015800000000000000000000000000000183C3C18000000000C0E0703010000000000007E
:2015A00000FCFE87C3E377FEFC00000C0EFFFF0000000000000C0E0783C3E77E3C00000370
:2015C00003C3C3C3E7FE3C0000C0E070381C0EFFFF00003F3F33333373E3C30000FCFEC73D
:2015E000C3C3C78E0C00000303C3E3733B1F0F00003CFEE7C3C3E7FE3C00003C7EE7C3C38D
:20160000E7FEFC0000183C3C18000000000000183C3C18000000000000C0E0F0381C0E07A0
:20162000033030303030303030303003070E1C38F0E0C000000C0E07030383C3E77E3C00BD
:20164000000F1F3B3130381F0F000030303F3F3030000000003C3E37333130303000003047
:2016600030303030391F0F00000303030303033F3F00000C1C383030381F0F00000F1F3827
:201680003030391F0F000000003F3F0000000000000F1F393030391F0F0000000030381C53
:2016A0000E07030000060F0F06000000000000333B1F0F000000000000000103070E1C38DF
:2016C000300303030303030303030330381C0E0703010000000000000033330100000000B8
:2016E000003C7EE7C3C3E77E3CF0F8DCCEC7C7CEDCF8F0FFFFC3C3C3C3C3E7FE3CFCFE0781
:2017000003030303070E0CFFFF030303070E1CF8F0FFFFC3C3C3C3C3C30303FFFFC3C3C39F
:20172000C3C3C30303FCFE0703C3C3C3C7CECCFFFFC0C0C0C0C0C0FFFF00000303FFFF0329
:20174000030000000000000303FFFF0303FFFFC0E0F0381C0E0703FFFF0000000000000084
:2017600000FFFF0E1CF8F81C0EFFFFFFFF3870E0C08000FFFFFCFE070303030307FEFC0057
:201780000000000000000000003F3F0000000000003F3F3F3F3030303030391F0F0F1F3812
:2017A00030303030381C0C3F3F303030381C0E07033F3F30303030303030303F3F00000013
:2017C00000000000000F1F3830303030303F3F3F3F0000000000003F3F000030303F3F302B
:2017E0003000000C1C383030381F0F00003F3F000103070E1C38303F3F30303030303030AA
:20180000303F3F0000000000003F3F3F3F0000000103033F3F0F1F3830303030381F0FFF0E
:20182000FFC3C3C3C3C3E77E3CFCFE070303030307FEFCFFFFC3C3C3C3C3E77E3C3C7EE71C
:20184000C3C3C3C3C78E0C03030303FFFF03030303FFFF000000000000FFFFFFFF0000000B
:20186000000000FFFFFFFF000000000000FFFF0F1F38F0E0E0F0381F0F3F7FE0C08080C0E4
:20188000E07F3F03030383C3E3733B1F0F0000FFFF0303030300000C1C3870E0C0800000A2
:2018A00000000003030303FFFF000030381C0E07070E1C3830000000000000000000003FAD
:2018C0003F00000000000000000F1F383033371E1C3F333F3F000003070E1C38300C1C38A3
:2018E00030303030391F0F000000003F3F000000000F1F3830303030381F0F03070E1C384B
:20190000381C0E07030F1F38381F1F38381F0F3C3E0703010103073E3C000000013F3F0157
:201920000000003C3E373331303030303000003F3F30303030000000000000000103070E4B
:201940000C0000303030303F3F00000000000000000000000030303030303030303030005D
:201960000003070E1C383000000000303030303070E0C0FFFFC0E070303070E0C0C0E0703D
:2019800030303030300000C0E070303070E0C0FFFFC0E0703030303070E0C0C0C0FCFEC7B8
:2019A000C303070E0CF0F89C0C0C0C0C0CFCFCFFFFC0E070303070E0C000003030F3F300C4
:2019C000000000000000003030F3F30000FFFF0080C0E07030000000000303FFFF000000FF
:2019E00000F0F03070E0E07070E0C0F0F0C0E070303070E0C0C0E0703030303070E0C000E7
:201A00000000000000000000000C1E3F33333333333F3F3F3F3030303030381F0F0F1F38A6
:201A200030303030381C0C0F1F3830303030303F3F0F1F3B3333333333030300003F3F00C6
:201A40000000000000000133333333333B1F0F3F3F0000000000003F3F000030303F3F3013
:201A60003000000C1C383030381F0F00003F3F03070F1C38300000000030303F3F303000B7
:201A8000003F3F0000030300003F3F3F3F0000000000003F3F0F1F3830303030381F0FF0CC
:201AA000F03030303030F0E0C0C0E0F0303030E0C0F0F0F0F0C0E070303070E0C0C0E0F026
:201AC000303030303000003030FFFF303000000000F0F0000000000000F0F0F0F0000000B8
:201AE000000000F0F0F0F0000000000000F0F03070E0C08080C0E07030F0F0800000000066
:201B000000F0F03030303030B0F0F070300000C0E03C3E0703000000000000FFFF000000A3
:201B200000000003073E3CE0C00000C0C0C0C00C1CF8F0E0C0C0E0F0F81C0CC0C0C0C03FE2
:201B40003F030303030303010000010303030303033F3F3F3F000000000000000030313390
:201B6000333333333F1E0C00000F1F383030381C0C0F1F383030381C0C3F3F03070E1C38FA
:201B8000381C0E07030F1F38381C1C38381F0F30381C0F07070F1C38300001333333333331
:201BA0003B1F0F30383C3E373331303030000000010F1F38300000000000003F3F0000009A
:201BC00000000030381F0F01000000000000000C0E07030100000103070E0C0000000040E4
:201BE000800804201002010000891112239B322446AD573665BF74488CC19D5AAFD3BE6C16
:201C0000CAE5DB7EE9F7F88110080193331A22A5562C47B7753E64C99C408DDBBF52AEED53
:201C2000DA64CBFFF976E802218B30100299132667AF763444BD554AADC3BC588ED19F6E33
:201C4000EBE7FA7CC8F5D983310A2091121803A7772E66B5543C45CBBD42ACD99E508FEF13
:201C6000FB66EAFDD874C904428D5316619F702004A9153227BB364CCEC5DF5EEDD7FC68EB
:201C800088E1997AABF3BA85520C4397711E60A1142805B3373A26CDDE44CFDFFD56ECE9D3
:201CA000986089FBBB72AA06638F7214409D512225AB343006B9174EEFC7FE5CCCD5DD6AB3
:201CC000A9E3B8788AF19B87730E6295501C41A3352A24B1163807CFFF46EEDDDC54CDEB93
:201CE000B962A8F99A708B088481951AA793B62CC2A5D33EE1B7F04008C919522BDB3A649B
:201D00004EED5F766DFF7C899400859BB712A6ADD224C3BFF136E0C1184809D33B5A2AE552
:201D20005E6C4FF77D7E6C0AA583B4188691972EE3A7F23CC0B5D14229CB38500AD91B6632
:201D40006FEF7E744CFD5D8BB502A499961087AFF326E2BDD034C1C3394A28D11A580BE712
:201D60007F6E6EF55C7C4D0CC685D71EE597F42880A1913AA3B3B2444ACD5B5669DF7860EA
:201D80000CE91D722FFB3E8DD604C79FF516E4A9902081BBB332A2C55A4C4BD7795E68E1D2
:201DA0001C680DF33F7A2E0EE787F61CC495D52AA1A3B03882B193466BCF7A5448DD5962B2
:201DC0002DEB3C700EF91F8FF706E69DD414C5ABB122A0B9923083C77B4E6AD5585C49E392
:201DE0003D6A2CF11E780F23860A0C0D0B100723232323232323238488979A1113141516D4
:201E000009181B122323232305191C1D1E1F2320A122421C11241FBECFEFD0E1DEBFCDBF46
:201E200011E0A0E0B1E0E2E2F8EF02C005900D92AA32B107D9F71FE0AAE2B1E001C01D920F
:201E4000A237B107E1F71EE1C4E1DEE104C02297FE010E94CA7BC231D107C9F70E94761B95
:201E60000C940F7C0C9400003091A90422B78091A9043817C9F7932F80E030E0282B392B9A
:201E8000C901089529E2820290011124359527953595279587FD815C86FB880F880B80F9F5
:201EA000992787FD9095281B390BC9010895F8942091D50D3091D60D7894C9010895482F1E
:201EC00050E09A01220F331F63E0440F551F6A95E1F7240F351F2C553E4FC901089590E067
:201EE0009C01220F331F220F331F280F391F2C513D4FC9010895CF92DF92EF92FF920F93BA
:201F00001F93CF93DF93C82EF62EEA01122FD02E57FF10C022FF02C08CE101C08FE09C2D88
:201F2000981B892F6F2D4DE2212F0E948F67D095C195DF4F2D2D21238C2D6F2D4AE30E94D8
:201F40008F67CE016CE370E00E94787B9B01442737FD4095542F012F00618C2D6F2DA2E08D
:201F6000EA2E0E94FD6912FF02C0EAE101C0EFE0CE016CE370E00E94787B9C01442737FDD4
:201F80004095542F0D2D00618E2F8C0D6F2DF2E0EF2E0E94FD69DF91CF911F910F91FF90B6
:201FA000EF90DF90CF9008950F931F93062F122F206250E00E94336B17FD07C08091A709DF
:201FC000602F46E7212F0E948F671F910F910895242F409109010E94D40F08950F93022F4D
:201FE000442319F44FE257E016C04530C0F4E0916E01F0E0EE0FFF1FEE0FFF1F3197E40F65
:20200000F11DE850FB4F449150E0440F551F440F551F4856594F24E00E9452680DC04532B3
:2020200028F4242F25504DEA56E004C0242F255248E857E00E947C680F910895FF920F9364
:202040001F93182FF62E022F442321F447E956E024E00EC08A5E4A3008F485506F2D50E07F
:20206000202F0E94336B812F6F2D44E956E022E00E9452681F910F91FF9008950F931F93F4
:20208000DF93CF9300D0CDB7DEB7382F162F942F022F442329F0463139F04A3E81F408C0FE
:2020A0008A5F40E956E007C08A5F44EF54E003C08A5F40EF54E0202F0E94916828C040950B
:2020C000441F4427441F81E2841B482F832F39839A830E948F673981832F8A5F9A81E92FAB
:2020E000FF27E7FDF095F7FF03C0F095E195FF4FFF27E7FDF0953197AF01440F551F4E0F24
:202100005F1F405B594F612F23E00E9452680F900F90CF91DF911F910F91089580E596E039
:202120000895CF92DF92EF92FF920F931F93D82EF62EE42EC22E10919501223008F03DC020
:20214000E12FFF27E7FDF095F7FF03C0F095E195FF4FE0317CF48D2D6F2D4EE156E02E2F45
:202160000E2D0E947C681F3FBCF58D2D86506F2D41E21FC08D2D8650E53264F411161CF42B
:20218000412F4F5002C0412F415F6F2D2E2D0E943E1022C011161CF4412F445202C0412F26
:2021A0004C5D6F2D2E2D0E943E108D2D8E5E6F2D4DE62E2D0E948F670FC08C2D823071F488
:2021C00002C0113059F48D2D86506F2D409105042E2D0E943E1002C0CC2099F31F910F91D4
:2021E000FF90EF90DF90CF900895AF92BF92CF92DF92EF92FF920F931F93CF93DF93F82EA2
:20220000D62EA22E102F242F30E040E050E0BB24F501EE0FFF1FEE0FFF1FE65DFB4F0081DF
:202220000295069506950370CC24C394023009F0CC24EE2079F1F501EE0FFF1FEE0FFF1F58
:20224000E95DFB4F8081C82FD0E0CC2011F0CC0FDD1FBE0180E090E00E94397B033051F128
:20226000C436D10580F49B01AC01CA01B901660F771F881F991F23E330E040E050E00E94DA
:202280008B7B10631FC02FEF30E040E050E00E948B7B18C0CC2021F0220F331F441F551F91
:2022A000033081F4CA01B9012FEF30E040E050E00E94397B24E630E040E050E00E948B7B0B
:2022C000106202C0002311F0CC2079F0012F00628F2D6D2D75E0E72E0E94FD6917FD22C001
:2022E0008091A7096D2D46E71AC08F2D6D2DA901212F0E94336BF501EE0FFF1FEE0FFF1FC0
:20230000E65DFB4F80818295869586958370833049F417FD07C08091A7096D2D41E4212F54
:202320000E948F67DF91CF911F910F91FF90EF90DF90CF90BF90AF9008958C3038F4E82FDF
:20234000F0E0EE0FFF1FED51FB4F2AC0803198F4E82FF0E0DF01AA0FBB1FA058BB4FEE0F8A
:20236000FF1FEC5BFE4F2D913C91119780819181281B390B0AC0843158F4E82FF0E0EE0F2F
:20238000FF1FE058FB4F20813181220F331F33C0843248F4E82FF0E0EE0FFF1FE753FB4F5C
:2023A0002081318128C0843320F5E82FF0E0EA55F84FE491E7FD15C0E43029F48091BE0675
:2023C0009091BF0602C080E090E0FF27E7FDF095EE0FFF1FEA52F14F20813181280F391F7D
:2023E0000AC0FF27E7FDF095EE0FFF1FE15CF94FD7CF20E030E0C9010895AF92BF92CF92D4
:20240000DF92EF92FF920F931F93CF93DF93D82EC42E463008F0E7C0882309F4E7C08631FE
:2024200019F08A3E19F4DFC061E0E0C0992787FD90957C0197FF04C0EE24FF24E81AF90AC4
:202440002E2D2A307CF41D144CF02DE030E0A901481B590BCA010E94996CC2C00D960E9423
:20246000996CC3C02A50E22EFF249701220F331F2E0D3F1D26573E4FF901E85AFD4F8081E2
:20248000882309F4B0C05C2D553029F4F701EA58FB4F8081A3C0F901EA5AFD4FB080295AD4
:2024A0003D4FF901A080853008F4ACC08830A8F08B2D81500E949D118C018A2D81500E9479
:2024C0009D1105C08B2D85526A2D0E947B1C9C0108C08A2D0E94420FFACF20E030E000E062
:2024E00010E0E701CC0FDD1FCE0DDF1DCE51DC4F8881883088F4853078F5823009F458C0E6
:20250000833020F4813009F064C04DC08330C1F0843009F05EC01AC08A3009F444C08B309A
:2025200030F48830B1F1893009F053C037C08C3009F443C08C30E0F18D3009F04AC042C056
:2025400017FF31C0109501951F4F2DC017FF30C0109501951F4F2CC0C3948B2D60E04C2D7B
:202560000E94FD11082F8A2D60E04C2D0E94FD119881953029F4002361F1882341F52AC019
:20258000963029F4002319F5882319F120C0802721C081E002171307E1F41CC081E002174B
:2025A0001307C1F416C081E0201731079CF011C081E00217130774F00CC081E002171307F1
:2025C0004CF407C081E02017310724F402C081E001C080E0F701EA58FB4F80831D142CF0F4
:2025E00061E0682703C060E001C0682F862FDF91CF911F910F91FF90EF90DF90CF90BF90B0
:20260000AF9008958B2D81500E949D118C01FB2DF5320CF45ECF56CF86B380958E770895E7
:202620000E940C138823E1F70E940C6C089580915B0160E040E00E94FD11882331F4809141
:20264000930490919404009711F0C79A0895C79808950F931F93CF93DF93EC018B010E9455
:20266000256782E260E049E056E024E00E94916880E2BE010E94B86888E2B8010E94B86864
:2026800080E363EF75E00E94B8680E949D6B809158010E94936B0E941013DF91CF911F9175
:2026A0000F9108950F93462F50E0405B594F60E123E000E00E9452680F910895DF92EF92A4
:2026C000FF920F931F93CF93DF9380916D0181FD75C088E895E062E775E00E94291380919D
:2026E0008501982F9873983041F0903131F0903221F0877C88608093850100E0FF24C5E1A7
:20270000D0E008C0CE01801B91090E94996CFF0CF82A0F5F0830B0F3E0908501EF2480E0B7
:2027200060E14BE555E026E100E00E9452680E2D10E0E0FE04C082E060E00E94521301FF3A
:2027400004C087E163E00E94521302FF04C08CE266E00E945213C80188739070009799F09F
:20276000DF2CF3FE04C081E469E00E945213D4FE04C081E46CE00E945213D5FE04C081E49A
:202780006FE00E94521306FF04C086E562E10E945213E7FE04C08BE665E10E9452130E945C
:2027A0009D6B80918501F81649F00E940C13882329F40E94171300E0FF24A4CFDF91CF9198
:2027C0001F910F91FF90EF90DF9008951F93CF93DF930E940C1320E030E011E0482F50E0A0
:2027E0002F5F3F4FBA01022E02C0759567950A94E2F760FD03C01F5F183091F7115016307E
:2028000030F5812F0E949761882309F110935701812F0E949B6181E00E946E620E9425675A
:2028200086E160E043E555E024E00E949168CAE8D1E01AE04991812F68E124E00E948F6729
:20284000155F1837B9F70E949D6B0E941013DF91CF911F9108951F93CF93DF93EC01162FC1
:202860000E94256788E1BE010E94B868112349F48CE168E345E455E00E94C0684FE355E088
:2028800002C047E355E082E260E024E00E9491680E949D6BDF91CF911F91089561E00E942A
:2028A0002B14809158010E94936B08951F93162F60E00E942B14112319F48091580101C0AE
:2028C00089E10E94936B82E10E9456760E9410130E940C138823C9F480916A0E833019F4E6
:2028E000A89510926A0E80915B0160E040E00E94FD11882331F480917201882311F41123CC
:2029000011F0C79AE5CFC798E3CF1F91089580917404882351F087E995E060E00E9456149D
:20292000809174048E7F80937404089580916D0187FD07C0887329F482EC95E060E00E9432
:202940005614089580916D0182FD0AC00E949463883C910528F48FE096E060E00E94561468
:202960000895EF92FF92CF93DF93A82FAF70A65090919C01923074F0292F332727FD309569
:2029800021503040C1E0D0E002C0CC0FDD1F2A95E2F79C2FA83008F09BC06A2F659570E0FB
:2029A000FB01EE0FFF1FEF5FFE4F0190F081E02DB081992379F4CB2FDD27C7FDD095D7FFFF
:2029C00003C0D095C195DF4F9C2FC7FD9D5F959595959F5F40916E0150E04170507022E08B
:2029E00030E0241B350B2617370761F420919B0120FF73C021E094E03091700130FF03C040
:202A0000919501C020E04B2F552747FD5095C92FDD27C7FDD095A0FF03C0C40FD51F04C09E
:202A2000BA016C1B7D0BEB01209729F07E019F2D9B2797FF0BC0222349F4BB2339F0108287
:202A40000E94F86C86E10E94567641C0CE0184589F4F893F9105B8F4C08386E00E946E62DC
:202A6000CE0183589F4F8B3F910588F5D7FF03C0D095C195DF4FD595C795D595C795BE0114
:202A8000645C462F1FC01C161D0614F48DE701C083E8808386E00E946E62CE0183589F4FB2
:202AA0008B3F9105A0F4CE01D7FF03C0909581959F4F64E070E00E94787B709561957F4F9F
:202AC000462F445C8CE394E065E10E94E37480E0DF91CF91FF90EF90089520E08DCF8F9267
:202AE0009F92AF92BF92CF92DF92EF92FF920F931F93CF93DF93182FEB015A016901802E61
:202B000084FF06C01F70106654E0952E05E003C045E0942E04E0802F8066181761F0802F39
:202B20008064181741F080911205882369F0133611F0133449F47E010894E11CF11C83E1CE
:202B40000E945676892D18C0992D9066191761F0992D9064191741F0882309F474C01236FD
:202B600019F0123409F06FC07E010894E108F10884E10E945676802F90E00E94996C88239D
:202B800051F0EE24FF24EC1AFD0A892D0E94F86C802F0E94F86CA114B10491F481E0C81613
:202BA000D10471F4103661F41092120531E0E32EF12C209711F0EE24FF2480E60E94F86CEF
:202BC0002091900430919104E21AF30ACE14DF0444F4812F0E94F86C83E10E945676760165
:202BE0000AC0EA14FB043CF4812F0E94F86C84E10E9456767501EC16FD06A9F0E114F10457
:202C000051F4812F0E94E96CD7FF02C083E101C084E10E945676882D83700E946E6281E0BD
:202C200080938D0402C010928D04C701DF91CF911F910F91FF90EF90DF90CF90BF90AF90A9
:202C40009F908F9008957E01A6CF0F93772767FD7095552747FD5095332727FD30950E9462
:202C60006F150F9108950F9302E00E9425160F9108950F9301E00E9425160F910895E091E7
:202C80008C04F0E0EE0FFF1FEC57FB4F80819181089590918C04992319F4882331F418C05A
:202CA000882319F4892F815001C080E080938C0487E10E945676E0918C04F0E0EE0FFF1F4D
:202CC000EE57FB4F0190F081E02D8EEB0995089583E295E060E00E9456140895FC01A091B1
:202CE0008C04B0E0AA0FBB1FAE57BB4FED93FC938FEB099587E10E9456760895CF93DF93A4
:202D0000EC0180918C04982F9F5F90938C04953040F080938C0480E195E060E00E945614F3
:202D20000FC087E10E945676E0918C04F0E0EE0FFF1FEE57FB4FD183C0838FEBFE010995C5
:202D4000DF91CF9108958CE394E00E94E273882311F084E105C08091AA04882321F081500A
:202D60008093AA0407C09091630081E091FF80E08093AB048091AB0480933B0408951092E3
:202D8000970410923E0610923D0610929604089520919304309194042115310511F0215075
:202DA0003040882369F06091720170E044EF51E0649FC001659F900D749F900D112402C07B
:202DC00080E090E040919504442369F0E0917A01F0E064EF71E0E69FA001E79F500DF69FFB
:202DE000500D112402C040E050E08217930708F4C9018417950708F4CA019093940480936A
:202E000093040E9417130895E82FF0E0E85FFA4FE491F0E0EE0FFF1FE255FB4F2081318107
:202E2000C9010895CF92DF92EF92FF920F931F93DF93CF930F92CDB7DEB720E0CC24DD2474
:202E4000822F29830E940417092F10E0C00ED11E29812F5F2430A1F7C6010F90CF91DF9119
:202E60001F910F91FF90EF90DF90CF9008951F930E94570F41E02091E1043091E2048217D8
:202E8000930709F440E0409392040E94570F9093E2048093E10487E195E060E00E941D3DF0
:202EA00080919204882309F4D1C08091960480FF14C080919704982F9F5F9093970494363B
:202EC00060F083568093970480913D0690913E06019690933E0680933D0680E00E947C622E
:202EE0000E9425670E940F6C0E94B114182F0E94C8162091EF043091F00480918E0490913C
:202F00008F04821B930B60E270E00E94787B70939104609390046115710591F08091DF043C
:202F20009091E004821B930B62E070E00E94787B709391046093900430938F0420938E0470
:202F40003093E0042093DF048091700185FF04C01092910410929004E0918C04F0E0EE0F2F
:202F6000FF1FEE57FB4F0190F081E02D812F09950E949D6B0E94A316882309F463C0809166
:202F8000760185FD5FC0809165008F7E809365000E94570F8F7190708230910509F04FC0C6
:202FA00087E00E9404179C0164E0220F331F6A95E1F768E070E00E94787B40915A015527DD
:202FC00047FD50954A5F5F4F649FC001659F900D749F900D1124820F931F2091700126FD9F
:202FE00005C060910A0170910B0102C060EF70E02091090130E02F5F3F4F0E94647B260F05
:20300000371F35952795209309018091DE04805E8093DE04882399F480915901281778F403
:20302000223368F081E10E9456768091700183FF06C082E390E0909394048093930410926D
:20304000950404C0809165008061A0CF1F910895AEEAB4E0EEEBF4E060E0862F806487B90E
:20306000369A408951898D919C91119796958795840F951F8E7F11969C938E932081318105
:20308000C901840F951F96958795918B808B349BFECF349A84B195B1820F931F9695879542
:2030A000819391936F5F12966830B9F60895EF92FF920F931F93CF93DF938091700184FD41
:2030C00044C00E9417130E94256780E060E045ED50E020E000E00E9430678091760184FDCE
:2030E00008C080E068E34BE751E02AE000E10E9452680E949D6B809158010E94936B0E945D
:20310000101300E20E9428180150E1F70E9412178C010E94570FEC01C057DE4F0DC00E949F
:2031200028180E9412177C010E940C13882369F4E016F10651F406C00E94570FC817D9077F
:2031400071F703C00E941713F7CFDF91CF911F910F91FF90EF900895EEEAF4E040E012C049
:2031600067B9369A349BFECF349A24B135B1820F931F5150A9F796958795819391934F5F89
:20318000483031F054E080E090E0642F6064E8CF0895EEEAF4E020E0822F806487B9369A96
:2031A000349BFECF349A84B195B1880F991F819391932F5F283081F70895FF920F931F93C3
:2031C000CF93DF9380916D0180FD3AC080916E0190E08170907002E010E0081B190BF80132
:2031E000EE0FFF1FE65DFE4FC181D281609687859089C81BD90B0E94C918F02E802F0E94BB
:203200000417C817D907E4F40E940C138823C1F40DC00E94C9188F2D0E940417C817D90753
:203220007CF40E940C13882341F00AC081EE95E062ED75E00E942913ECCF0E941713E9CF12
:20324000DF91CF911F910F91FF9008958EE587B9369A349BFECF349A84B195B1049640914F
:203260000A0150910B019A0163E0220F331F6A95E1F7241B350B820F931F23E09695879512
:203280002A95E1F790930B0180930A01089578941F920F920FB60F9211248F938091A904D4
:2032A0008F5F8093A9048F910F900FBE0F901F90189578941F920F920FB60F9211242F931E
:2032C0003F934F935F936F937F938F939F93AF93BF93EF93FF93F89487B78D7F87BF789410
:2032E00081B78E5F81BF90913E0480914004882379F080917901882349F0813051F4809127
:20330000710F890F8093710F87FF02C01B9A01C01B9880910C01982F915090930C018823F0
:20332000E9F48DE480930C018CE394E00E94F6730E94096D0E94D47980916A0E82608093AC
:203340006A0E80910001815080930001882331F488EC8093000181E080937504F89487B7EF
:20336000826087BF7894FF91EF91BF91AF919F918F917F916F915F914F913F912F910F901A
:203380000FBE0F901F90189578941F920F920FB60F9211241F932F933F934F935F936F9350
:2033A0007F938F939F93AF93BF93EF93FF932091800030918100F89480917D008F7D809353
:2033C0007D0078948091AC049091AD04A901481B590BCA01969587953093AD042093AC0477
:2033E0001091A804212F2150283058F59C012152334055E02737350708F5E12FF0E0EE0FEE
:20340000FF1FEA56FB4FAC014C5D554020917401332727FD3095265F3F4F429FC001439F19
:20342000900D529F900D11246AE070E00E94787B718360831F5F1093A8040CC01092A8043F
:2034400009C0815A9F402EE28F3D920718F481E08093A804F89480917D00806280937D00BC
:203460007894FF91EF91BF91AF919F918F917F916F915F914F913F912F911F910F900FBEC4
:203480000F901F901895E3E7FFE09F0181918535E1F322573F40C9010895EF92FF920F9335
:2034A0001F93CF93DF930E94340FEC0180917101813019F40E94281807C0823019F40E9469
:2034C000AC1802C00E94C9188EE587B90E9437170E94261980916A0E833019F4A895109237
:2034E0006A0E0E94340F8C1B9D0B2091BC063091BD062817390720F49093BD068093BC06DB
:2035000080917504882309F4EAC0109275048091A10E882399F180919601829586958695CA
:20352000837090E00097C1F08230910519F420E931E002C02AE730E08091BE069091BF06D3
:203540004091DE0E5091DF0E840F951F281739071CF481E00E94567620914E0F9091040404
:20356000E2E4FFE080E008C03191391720F48DE10E94567603C08F5F8217B0F38091A00ED0
:20358000882329F408E014E0C0E0D0E081C080E060E00E9476778C018330910569F480E034
:2035A00060E00E94D07707E214E092EFE92E9EE0F92EC0E0D0E038C080E061E00E94767750
:2035C000EC018330910511F181E060E00E9476777C018330910501F181E061E00E9476779A
:2035E00083309105F1F002301105C9F2C230D10569F0E2E0EE16F10479F08230910589F098
:203600000130110561F2C130D10511F480E00AC0F1E0EF16F10411F481E0C2CF8130910511
:2036200011F681E061E0BDCFF8018081882329F1FE01EE0FFF1FEE0FFF1FE65DFB4F8081D3
:2036400082958695869583708330B9F420913004222399F0F70180819181B6E09595879530
:20366000BA95E1F730E0821793073CF08CE394E06091310446E40E94E37421960C5F1F4FF8
:2036800082E090E0E80EF91EC230D10569F67ACFFE01EE0FFF1FE95FFB4F8081982F907C5B
:2036A0009034B9F4880F880F8595859560E040E00E94FD11882369F080917901882319F0E4
:2036C000F801608101C061E08CE394E046E40E94E37421960E5F1F4FCC30D105C9F6DF9175
:2036E000CF911F910F91FF90EF9008951F938FEF8ABB1BBA91E897BB9EE798BB9EE394BBB2
:2037000091EC95BB11BA82BB88E082B987EF83B9109261001092620084E1809364008BEF22
:20372000809365000E945D6B0E94B77980E487B985E886B987E083BF8CE981BF87B7836006
:2037400087BF1FBC8AE08EBD10928B0082E880938A0080917D00806280937D00EDB7FEB706
:20376000329785E502C0808331979FE0E237F90709F0C8F778948FEF96E490938304809378
:20378000820489E10E94936B0E942762109157010E94E613809158010E94936B90917A0134
:2037A000909393041092940480917201981710F480939304409193045091940424EF31E02F
:2037C000429FC001439F900D529F900D112490939404809393040E94171380917901813098
:2037E00039F48091700184FD03C087E00E9456760E9457180E94A2140E94C9180E94DD187E
:203800000E945E130E9496140E9487140E94101380EF90E090930B0180930A010E94E9711F
:203820002DE088E190E00FB6F894A89581BD0FBE21BD87E195E060E00E941D3D8FEB98E31D
:203840009093850480938404809158010E94936B80915701181729F081E00E946E620E94F1
:203860000F638091510F80648093510F80ED97E09BBD8ABD80E186BF87B7806187BF0E94DE
:203880004D1AFDCF8CE394E00E94DF73089529E2820290011124359527953595279587FD9C
:2038A000815C86FB880F880B80F9992787FD9095281B390BC90108959C01E5E035952795C8
:2038C000EA95E1F7AC01440F452F441F550B280F391F892F990F990B8595280F391F241BDF
:2038E000350BC9010895F8942091D50D3091D60D7894C9010895E82FFF27E7FDF095E6530C
:20390000F84FE491772767FD709563587F4FEC307CF4EA30E4F5E43001F1E5302CF4EE5F54
:20392000E23008F044C00EC0E63009F040C015C0E0312CF4EE3074F5EC30C9F525C0E3323B
:20394000B1F533C0CB01880F991F23E0660F771F2A95E1F7680F791F2AC0603471053CF1DE
:20396000660F771F60547040613C710504F1660F771F605C704021E0613C7207C4F0660F19
:20398000771F685E714013C084E690E005C06E5170400DC082E390E09B01289FB001299FBB
:2039A000700D389F700D112402C0660F771FCB0108958F929F92BF92CF92DF92EF92FF9244
:2039C0000F931F93DF93CF930F92CDB7DEB7F82E162FB42E4901902FCE2CDD24E0FE0EC008
:2039E00048E857E02B2D00E099830E947C688F2D8E5E998192FF02C08C5F1850EB2DFF27E0
:203A0000E7FDF095E653F84F2491243009F43FC0253054F42E3F0CF459C02F3F89F084F03A
:203A200022300CF053C014C02C3034F42A30C4F4263009F04BC02FC0233209F047C043C01A
:203A40008A50612FA401292F092F0E947B0F06C0612F482D092FEE240E94F51000E257C0E6
:203A60002091960125FF34C0A4014E5E5F4F23E730E0429F4001439F900C529F900C11246B
:203A8000E6E095948794EA95E1F706E426C02091960123FD1FC02091960125FF1DC09401D0
:203AA0003595279535952795A401440F551F480D591D240F351F45E0959487944A95E1F71C
:203AC000820E931E07C0906306E707C000E205C003E403C006E601C00DE6612FA401292FB9
:203AE00099830E94336B96012670307099812115310569F0C2FE04C08F2D865F9B7F02C0BD
:203B00008091A709612F402F292F0E948F67802F0F90CF91DF911F910F91FF90EF90DF900A
:203B2000CF90BF909F908F900895EF92FF920F931F93F82E162FE42E48E857E02E2D00E067
:203B40000E947C68EE2DFF27E7FDF095E653F84FE491E7FF0FC0FF27E7FDF095EE0FFF1FE1
:203B6000E15CF94F408151818F2D885E612F20E00E947B0F1F910F91FF90EF900895E82FBD
:203B8000F0E0E653F84FE491F0E0EE0FFF1FEA52F14F808191810895CF92DF92EF92FF9265
:203BA0000F931F93D82EC62E142F042F0695E82EE01AF62EF01A8E2D6F2D0E944269602F35
:203BC0006C0D8E2D412F0E943E69802F8D0D6F2D412F0E9442698E2D6F2D412F0E943E6946
:203BE0001F910F91FF90EF90DF90CF900895AC0180E060E021E00E94916808950F931F9322
:203C0000CF93DF93182F8BE698E00E94F71D113658F0133628F0133639F489E99EE102C0D1
:203C20008FEF96E40E946E1686E068E043E658E00E94C06840913206509133068AE268E0B6
:203C400020E000E00E947B0F40913406509135068EE468E020E00E947B0F86E060E14BE574
:203C600058E00E94C06840913606509137068AE260E120E00E947B0F40913806509139060F
:203C800014E0569547951A95E1F78EE460E120E00E947B0F86E660E047E558E00E94C06829
:203CA00040913006509131068EE460E020E00E947B0F8091B8069091B9068937910528F0EA
:203CC0008091B706C82FD0E002C0C0E0D0E082E06CE34EE70E943E6985E06CE143E20E94B5
:203CE00042691BE0812F6BE343E00E9442691A5F1338C1F716E00CE3FE01E15CF94F40810A
:203D0000602F641B812F0E9442692196C837D10510F0C0E0D0E02091B70630E0C217D3078B
:203D200019F01F5F1E3741F7DF91CF911F910F9108951F93182F80EC98E00E94F71D1236D7
:203D4000E1F0133628F4103631F01136E9F418C01336D1F415C08FEF97E090930E018093AD
:203D60000D011092BB061092BA061092BD061092BC0687E10E94567607C08EEF9DE102C04D
:203D80008FEF96E40E946E1688E061EB78E00E94B8684091BA065091BB065695479584E5D4
:203DA00068E00E94436B80E162EA78E00E94B86840910D0150910E015695479584E560E164
:203DC0000E94436B88E163E978E00E94B8684091BA065091BB0680910D0190910E01481BDF
:203DE000590B5695479584E568E10E94436B80E26AE878E00E94B8682091BC063091BD06D1
:203E000089E190E0289FA001299F500D389F500D1124569547955695479584E560E220E396
:203E20000E94336B88E262E878E00E94B8680E94431AAC018FE368E20E94C46882E168E390
:203E400040E758E00E94C0681F9108958CED91E10895442319F044EF54E002C040EF54E068
:203E600091E0222309F490E0292F0E94916808950F93942F01E0222309F400E044ED51E1C4
:203E8000292F0E947C680F910895FF920F931F93F82E062F142F80E860E0402F50E0212FED
:203EA0000E94336B0A3010F00FE601C005E7802F60E04FE2212F0E948F674F2D50E04F5F84
:203EC0005F4F802F60E0212F0E94336B1F910F91FF9008956F927F928F929F92AF92CF9233
:203EE000DF92EF92FF920F931F93CF93DF93EC01162FD42E4901E091EB04F091EC046090D8
:203F0000ED047090EE048091C6089091C7088E1B9F0B20E430E0B9010E94787B462F6093D1
:203F200015058091C4089091C50886199709B9010E94787B862F60931605442321F0F09350
:203F4000C708E093C608882321F07092C5086092C40880911405882321F48091700185FF18
:203F600006C010921505109216051092140560911505662351F480911605882331F4809161
:203F8000900490919104009781F04091720150E024EF31E0429FC001439F900D529F900D88
:203FA000112490939404809393048114910409F456C08881882309F04BC0662331F18091B6
:203FC0001205882311F5ED2DE61BE7FDE0E0202F30E08E2F992787FD90958217930714F09E
:203FE000E02FE150FF27E7FDF0958D2D90E0E817F90749F0EE0FFF1FE80DF91D25913491EF
:20400000C9010E946E1610921505153641F4DD2011F0ED2D01C0E02FF0E031970FC01436DB
:20402000C9F42D2D30E0802F90E00197281739071CF4ED2DEF5F01C0E0E0F0E0EE0FFF1F3F
:20404000E80DF91D25913491C9010E946E1602C040E001C041E08D2D602F0E94451FE114E2
:20406000F10451F098818C2D9C1508F4892FF701E80FF11D549101C050E08091120588232D
:2040800009F04FC080911605882329F14881481B47FD40E0242F332727FD30958A2D90E0DA
:2040A000281739070CF04A2D48838981E114F10459F0C41608F44C2DF701E40FF11DE49149
:2040C0008E1718F4E82F01C0E0E0E98380E68093D80D109216058881882319F19091150517
:2040E0009923F9F04981E114F104B1F0491B47FD40E09C2D8C1508F4982FF701E90FF11DD3
:20410000E491242F332727FD30958E2F90E0281739071CF04E2F01C040E0498380E6809339
:20412000D80D103651F1113690F4133409F480C0143430F4113279F1123409F09CC06AC0E5
:20414000143409F43FC0153409F095C04FC01436E9F1153638F4123609F45FC0133609F034
:204160008AC069C01138A1F01F3B21F0153609F082C040C01982188212C0552309F47BC04A
:2041800081E090911205911180E08093120573C0109212050DC080911205882319F0109223
:2041A000120569C08881882319F08114910421F480E00E9449165FC087E10E9456761982D2
:2041C000188256C08981851709F455C0E114F10409F451C080911205882309F04CC089819D
:2041E000851710F48F5F12C0198242C08981882309F441C0E114F10409F43DC08091120503
:204200008823C9F58981882319F08150898330C059832EC088818A1571F180911205882303
:2042200051F588818A1510F48F5F0DC018820EC08881882301F1809112058823E1F4888112
:20424000882319F08150888301C0A8828981E114F10461F098819C1508F4C92EEC0CF11CDC
:20426000F7019491891718F4982F01C090E0998380E68093D80DDF91CF911F910F91FF9054
:20428000EF90DF90CF90AF909F908F907F906F9008954F925F926F927F928F929F92AF9222
:2042A000BF92CF92DF92EF92FF920F931F93DF93CF930F92CDB7DEB7D82E8CEA9BE00E944E
:2042C000F71D86E498E06D2D41E026EC38E006E054EBE52E5BE0F52E15E0C12EB6E0AB2E1A
:2042E0000E946A1F80904608909047088091630081FF07C08AE268E146EA5BE00E94C06821
:2043000052C182E168E047E95BE00E94C0688A9480911205882319F0A2E0CA2E02C0CC2484
:20432000C394EE24FF2410E1A82CBB24A7FCB094F4E06F2E712C2701440C551C84E691E094
:20434000480E591E4E2D4F5F80E0612F20E00E94EE0FAE14BF0411F491E0911090E0F201D9
:2043600021812295269526952370992311F400E001C00C2D88E1612F4CE85BE099830E941A
:204380007C6899819923C1F0809112058823A1F0F201618162956695669563708D2D40E0DF
:2043A00022E00E9439168295880F880F807CF20191819F73982B9183AE14BF0421F401E060
:2043C000F92DF13009F000E0F2018181880F880F85958595FDE08F02C0011124B3010E94AC
:2043E000787BAB01002311F420E001C02C2D82E4612F0E94336B0023A9F080911205882317
:2044000089F0F2016181660F660F659565958D2D41EE2FE10E9439168F73F2019181907C73
:20442000982B9183AE14BF0421F491E0F92DF23009F090E0F20120812770992311F400E01D
:2044400001C00C2D88E4612F4EE75BE099830E947C689981992391F080911205882371F0C9
:20446000F201608167708D2D40E023E00E9439168770F2019081987F982B9083AE14BF0456
:2044800021F401E0F92DF33009F000E0F2014081459545954595002311F420E001C02C2D80
:2044A0008AE5612F0E943E100023B1F080911205882391F0F20160816595659565958D2D79
:2044C0004AEE26E10E943916880F880F880FF20190819770982B9083185F0894E11CF11CE9
:2044E000103309F028CF80E363E77BE00E94B86840917401552747FD5095465F5F4FF82D5C
:20450000F43011F421E201C020E28EE460E30E94336B282D243049F48D2D6091740146EF7C
:2045200028E20E94391680937401EE24E394882D853009F0EE2480E068E34FE65BE02E2D84
:204540000E94916878E9A72E74E0B72E0CE511E090E3F501419151915F01F8012191319185
:204560008F01421B530B440F551F892F68E320E299830E94336B9981985E903951F7EE2099
:2045800091F0FD2DF03679F4ACE5B1E0E8E9F4E088E001900D928150E1F781E00E946E6202
:2045A00087E10E9456760F90CF91DF911F910F91FF90EF90DF90CF90BF90AF909F908F90AE
:2045C0007F906F905F904F9008954F925F926F927F928F929F92AF92BF92CF92DF92EF9247
:2045E000FF920F931F93DF93CF930F92CDB7DEB7D82E82E391E10E94F71D89EA98E06D2D30
:204600004AE022E53CE00BE0EDE3EE2EE1E1FE2E74E0C72E57E0A52E0E946A1F1091A908B8
:20462000C090AA088D2D8252843048F480911205882329F08091510F80638093510F809136
:204640001205882319F092E0992E02C09924939484EC482E8EE0582E02ECA02E0EE0B02E4E
:2046600066247724B8E0FB2E8F2D67E271E10E94B868862D813031F480E06F2D42E520E08F
:204680000E948F67F20120810894611C711C862C161511F4CC2011F000E001C0092D82E43C
:2046A0006F2D49ED50E10E947C68F501208130E040E050E0181519F4FC2DF13011F000E015
:2046C00001C0092D86E66F2DA3E0EA2E0E94FD69181539F580911205882331F48091900440
:2046E000909191040097E9F0CC2021F08C2D8130C1F40AC08D2DF201608140E023E002E01B
:204700000E942516F2010CC0F50160818D2D70E040E050E028E730E002E00E946F15F501AF
:2047200080830894411C511C0894A11CB11CFF2DF03119F088E0F80E97CF80913004A82EA5
:20474000BB24F6E0AA0CBB1CFA95E1F788E16DE171E10E94B868133041F4CC2031F480914B
:204760001205882329F421E001C020E000E002C022E001E084E568E1A5010E94336B002358
:2047800069F0609130048D2D70E040E050E028EC30E002E00E946F1580933004133049F44E
:2047A000EC2DE13031F480911205882329F401E001C000E090E002C002E091E08AE568E1FB
:2047C0004BED58E02091310499830E947C689981992349F08D2D6091310440E02FE00E9421
:2047E00033168093310480E262E171E10E94B86801E0143009F000E040919B014695437076
:204800004E5C8EE460E2202F0E948F67002389F060919B01669563708D2D40E022E00E94DE
:2048200033168370880F90919B01997F982B90939B0188E269E071E10E94B868209196013F
:204840002295269526952370153011F000E001C0092D82E468E24EEF50E10E947C68153092
:20486000C9F46091960162956695669563708D2D70E040E050E022E030E002E00E946F15BF
:204880008295880F880F807C909196019F73982B9093960180E362EF70E10E94B868209118
:2048A000040430E0220F331F442737FD4095542F163019F4092D006301C000E384E560E32A
:2048C00074E0E72E0E94FD69163069F4609104048D2D70E040E050E022ED30E002E00E94CE
:2048E0006F158093040488E367EE70E10E94B868409196014295417021E0173009F020E015
:2049000086E668E30E94291F173091F460919601629561708D2D40E021E00E943316817023
:204920008295807F909196019F7E982B909396010F90CF91DF911F910F91FF90EF90DF90D3
:20494000CF90BF90AF909F908F907F906F905F904F9008952F923F924F925F926F927F922D
:204960008F929F92AF92BF92CF92DF92EF92FF920F931F93DF93CF93CDB7DEB72B970FB6A7
:20498000F894DEBF0FBECDBF582E89E791E10E94F71D8BEA98E0652D49E022E53CE00BE0C1
:2049A000E3E8EE2EE1E1FE2E76E0C72E57E0A52E0E946A1FF090AB081091AC08852D825294
:2049C000843030F480911205882311F00E94B37A80911205882319F042E0242E02C0222404
:2049E000239488E060E771E10E94B8689091960196959695969591702F2D213011F401E070
:204A0000111100E08CE368E044E651E1292F99870E947C6899858F2D8130B1F41123A1F48A
:204A200080911205882381F0852D692F40E021E00E9433168170880F880F880F909196016E
:204A4000977F982B9093960190919601929596959170EF2DE13019F401E0113009F000E083
:204A600080E668E04CE551E1292F99870E947C689985FF2DF130B1F41130A1F48091120519
:204A8000882381F0852D692F40E021E00E94331681708295880F807E909196019F7D982B70
:204AA0009093960187E294E09A838983E2EAFEE0FD83EC83CC24DD2432E0332E20E1B22E58
:204AC000F22DF068F8878B2D61E571E10E94B868CB824C2D4F5C86E06B2D0E944E68E9819D
:204AE000FA814081F31421F4112311F4088501C000E880E66B2D2B81EE240E94F5108EE717
:204B00006B2DEC81FD8140812B8100E8EE24E3940E94F510F601EE0FFF1FEE0FFF1FE65D1D
:204B2000FB4F20812295269526952370F31411F4113011F000E001C0022D80E66B2D4BE47F
:204B400051E10E947C68F314E1F580911205882331F48091900490919104009791F1112320
:204B600019F0113071F510C0E981FA816081852D70E040E050E02FEF30E002E00E946F1567
:204B8000E981FA8180831DC04601880C991C880C991C8AE294E0880E991EF401608162957D
:204BA000669566956370852D40E023E00E9433168295880F880F807CF40190819F73982B50
:204BC0009083A32CA39408E0402E4B0C4601880C991C880C991C88E294E0880E991E662481
:204BE0007724F601EE0FFF1FEE0FFF1FE65DFB4FFB87EA87EA85FB854081242F2F7030E0BB
:204C0000C301880F991F02C0359527958A95E2F7F22FF370FE83842F8295837090E0062CDD
:204C200002C0959587950A94E2F7282F21702F8384E0642D46E451E120E00E949168FA1461
:204C400011F4112311F000E001C0022D84E2642D49ED50E12E810E947C68FA1411F4113063
:204C600011F000E001C0022D82E4642D42E451E12F810E947C68F4014081FA1421F41230C3
:204C800011F4088501C000E880E6642D2B81EE24E3940E94F510FA1409F064C080911205B3
:204CA000882339F48091900490919104009709F459C0113019F1113020F0123009F052C02B
:204CC00044C0852D6E8140E023E002E00E942516EA85FB8520816114710431F0982F990F43
:204CE000990F2370922B03C0922F9C70982B9F70EA85FB858081807F892B33C0852D6F8122
:204D000040E021E002E00E942516EA85FB852081229523706114710429F0982F990F2D7FBB
:204D2000922B03C0922F9E7F982B93709295907FEA85FB8580818F7C892B808380918D04C5
:204D4000882381F00E94B37A0DC0F4016081852D70E040E050E02FEF30E002E00E946F153D
:204D6000F4018083A394F8E04F0E0894611C711C0894811C911C22E06216710409F03ACF52
:204D800083E0380E98E1B90E0894C11CD11CE981FA813496FA83E9838C819D8106969D8345
:204DA0008C839B2D903409F08ECE2B960FB6F894DEBF0FBECDBFCF91DF911F910F91FF904C
:204DC000EF90DF90CF90BF90AF909F908F907F906F905F904F903F902F900895AF92CF9201
:204DE000EF92FF920F93AE2CEE24FF24CC240E946A1F0F91FF90EF90CF90AF900895EF926B
:204E00000F93DF93CF930F92CDB7DEB7682F8AEB9BE069830E94F71D88E498E0698142E049
:204E200026EC38E006E0EE240E94EE2680E167E677E00E94B86888E164E377E00E94B8680A
:204E400080E267E477E00E94B86888E268E577E00E94B86880E367E777E00E94B8680F9053
:204E6000CF91DF910F91EF900895CF92DF92EF92FF920F931F93DF93CF9300D0CDB7DEB7B1
:204E8000682F89EE9BE069830E94F71D8AE498E0698143E026EC38E006E0EE240E94EE261C
:204EA000BEE0CB2ED12C00E010E0143020F0A8EFFA2EF00E01C0F02EC6010E94996CE82E1A
:204EC0001F5F8AE26F2D412F20E00E943E104E2D405D84E46F2D2E2D0E948F67085F0894DA
:204EE000C11CD11C193009F708E3CC24DD2410E0812F90E00E94996CF82EA6014653544F03
:204F000080E0602F25E00E948B684F2D405D80E2602F2F2D0E948F671F5F85E090E0C80EE1
:204F2000D91E0850163021F784E568E142EC5BE027E00E948B68F6E0EF2EF12C10E230E0FB
:204F400084E5612F4DE359E0232F00E03A830E943067C7010E94996C282FC70101962983F6
:204F60000E94996C082F2981422F405D8CE6612F0E948F67402F405D88E7612F202F0E9405
:204F80008F673A813F5F185FE2E0F0E0EE0EFF1E3430B1F60F900F90CF91DF911F910F9137
:204FA000FF90EF90DF90CF9008958F929F92AF92BF92DF92EF92FF920F931F93CF93DF93E9
:204FC000D82E81EF9BE00E94F71D8CE498E06D2D44E026EC38E006E0EE24E3940E94EE2635
:204FE000F0904C08C3EED4E010E000E0812C84E0982EA12CB12C88E1612F41E40E944E68B1
:20500000402F4F5C8EE1612F0E944E68802F0E940417AC018AE2612F0E94C4680730B1F064
:2050200068817981882777FD8095982F24E630E040E050E00E94397BA50194010E94AD7BC9
:205040008AE5612FA9010E94436B0AC08F2D813011F040E201C041E28AE5612F0E94E80F81
:205060000F5F185F2296083031F68CE668E24EEE5BE022E00E948B6840910A0150910B01A1
:2050800088E760E320E00E94336B8F2D813059F4F09214058D2D60915A0141E82FE70E94E2
:2050A000391680935A01DF91CF911F910F91FF90EF90DF90BF90AF909F908F900895EF929C
:2050C0000F93E42E40E020E030E000E00E94EE260F91EF900895CF92DF92EF92FF920F9314
:2050E0001F93CF93DF938AE26CE247E10E94CC1D86E56CE247E10E94CC1D8AE26BE243E075
:205100000E94426989E26CE243E00E943E6986E56BE243E00E94426985E56CE243E00E9478
:205120003E698091E3049091E404C1E7D0E0BE010E94787B262F8091E5049091E6040FE8CA
:205140001FEFB8010E94787B645D822F865D45E00E94CC1D8091E9049091EA04BE010E9480
:20516000787B262F8091E7049091E804B8010E94787B645D822F8A5A45E00E94CC1DCBEED1
:20518000D4E02AE3F22E0DE510E098E3E92E8991999180509C4FB8010E94787BD62ED39402
:2051A000CE2CCD188F2D6C2D4D2D0E9442698F2D8F5F6C2D4D2D0E9442698F2D8E5F6C2DA8
:2051C0004D2D0E94426985E0F80E8F2D8934F9F6DF91CF911F910F91FF90EF90DF90CF9039
:2051E00008954F925F926F927F928F929F92AF92BF92CF92DF92EF92FF920F931F93DF93A0
:20520000CF930F92CDB7DEB7B82E86E49CE00E94F71D89E798E06B2D45E026EC38E006E03B
:20522000EE24E3940E94EE2610927908FDE54F2EF8E05F2EEFE4CE2EE8E0DE2E76018201AB
:2052400060E0862F69830E940417D8014D915C911197282F392F6981421753070CF49A016D
:20526000F801219331938F01D7014D915C911197282F392F241735070CF49A01F701219365
:2052800031937F016F5F6730E1F680914E0880931405FB2DF03219F0FF3B71F40BC08F5F50
:2052A00080934E08833041F487E10E94567681E00E946E6210924E0880914E08813099F05B
:2052C000813020F0823009F098C039C08CE060E144E35CE00E94C06882E168E144E25CE029
:2052E0000E94C0688AC08EE160E147E15CE00E94C06882E168E145EF5BE00E94C0680BE6E6
:2053000018E020E078E9E72E7AE3F72E68E6A62E65ECB62ED201ED92FD922D01F601A1920D
:20532000B1926F01822F29830E940417D8018D939D938D0129812F5F273061F75EC082E181
:2053400060E146E05CE00E94C06882E168E145EF5BE00E94C0685BE6A52E58E0B52E2BE2BF
:2053600031E0F90140E4842E912CD2018D919D912D01D6016D907D906D01AC014619570987
:2053800057FF03C0509541955F4F43335105DCF0D5010D911C91118300837801E81AF90A3D
:2053A000C701B4010E94787BE61AF70AF786E686C301801B910B8C01B4010E94787B061BFE
:2053C000170B158F048FA2E0B0E0AA0EBB1E3296BBE64B16B8E05B0641F680E090E0F9010D
:2053E000419151919F01840F951FF1E023343F07B1F790935601809355010E946B280F9045
:20540000CF91DF911F910F91FF90EF90DF90CF90BF90AF909F908F907F906F905F904F90D8
:205420000895EF92FF920F931F93182FF62EE22E862FBA010E94B86886E66F2D412F2E2DE9
:205440000E94291FEE2039F0802F612F40E021E00E943916182F812F1F910F91FF90EF9085
:205460000895282F30E0C901880F991FA901A3E0440F551FAA95E1F7840F951FA9014F5F65
:205480005F4FBA01660F771FE3E0440F551FEA95E1F7640F751F6C557E4F20953095205E2A
:2054A0003F4FA901440F551FA3E0220F331FAA95E1F7420F531F8C559E4F0E94DD7B8AE0DB
:2054C000EAEDF2E0DF011D928A95E9F782E00E946E620E940F6308950F931F93CF93DF93E8
:2054E000282F30E0E901CC0FDD1FC901A3E0880F991FAA95E1F7C80FD91F8E010C551E4FA5
:20550000A9014F5F5F4FCA01880F991FE3E0440F551FEA95E1F7840F951F20953095205E4B
:205520003F4FA901440F551F63E0220F331F6A95E1F7420F531F8C559E4FB8010E94DD7B8B
:205540008AE0D8011D928A95E9F780919D08C657DE4F8A8F8B8F84E68C8F82E00E946E62CE
:205560000E940F63DF91CF911F910F910895FF920F931F9385EFE7E3F5E0DF011D928A95B4
:20558000E9F780912C06A4EAB1E050E021E030E060E07C91772311F0472F01C040E16417CD
:2055A00038F5F22E032F162F1F5F802F90E0FC01EE0FFF1FEE0FFF1FE80FF91FE95CFA4FBA
:2055C000912F9F738081807C892B80648083F182F39453830F5F141738F3962F9095642F50
:2055E000822F8F5F890F390F340F290F240F840F772359F1832F90E0FC01EE0FFF1FEE0FD0
:20560000FF1FE80FF91FE95CFA4F4F738081807C5483842B8068808322832F5F1A968C919F
:205620001A97781719F41182138205C021832F5F852F8F5F8383822F5F5F1A96503219F4A8
:2056400020932C0604C03F5FA4CF80932C061F910F91FF9008951F93182F88E067E57FE0C3
:205660000E94B86882E168E240E55FE00E94C06882E160E342E45FE00E94C068113679F008
:205680001F3B19F01036A9F404C080E00E94567610C080912D060E94312A0E94B72A812FEE
:2056A0000E94F86C81E00E94491689E29CE20E947E161F910895E4EAF1E080E09081915025
:2056C000903108F48F5F3A9692E0E43EF907B1F708951F93182F80E169E77FE00E94B868AB
:2056E0000E945B2B482F88E760E150E020E00E94336B80E263E67FE00E94B868113651F493
:2057000081E60E94F86C81E00E94491689E29CE20E947E161F9108950E945B2B803230F054
:2057200089E69BE20E947E1681E0089580E00895EF92FF920F931F93DF93CF9300D0CDB7BE
:20574000DEB7182F813208F07BC0882319F4442341F476C0803219F4442331F071C044231E
:2057600019F0012F0F5F02C0012F0150812F4A8369830E945F0F7C01802F0E945F0FFC018D
:20578000D7018C91982F91504A816981903108F057C02081213108F053C06623A1F10E942C
:2057A0008C2B882309F04CC0212F30E0A9014F5F5F4FCA01880F991F13E0440F551F1A9599
:2057C000E1F7840F951FB901660F771FA901A3E0440F551FAA95E1F7640F751F6C557E4F45
:2057E00020953095205E3F4FA901440F551FE3E0220F331FEA95E1F7420F531F8C559E4F84
:205800000E94DD7B1DC0281759F0442331F08031B8F48F5FF701808313C0D7019C9310C0B1
:20582000D701CF010A9604C020813C9131932D93E817F907C9F782E00E946E620E940F63C3
:205840000F900F90CF91DF911F910F91FF90EF9008956F927F928F929F92AF92BF92CF92E8
:20586000DF92EF92FF920F931F93CF93DF93182F8CE39FE00E94F71DE0902C06EA9480EA08
:2058800098E0612F44E022E53CE00BE00E94EE26C090A008CC2011F410929F081236D9F1D4
:2058A000133670F41334A9F1143420F4123409F070C031C01036C1F0113609F06AC045C038
:2058C000103809F452C0113820F4133609F061C020C01E3BB9F11F3B09F05BC081E08093EC
:2058E0009E0810929F082EC01C143CF481E090919F08911180E080939F0880919F088093BB
:205900009E0880919B08882309F443C010929F0840C010929E0880919F088823D1F141E0AB
:20592000123609F040E080919C0860919E080E94982B80919E08882319F0133609F4CA9446
:2059400010929E080E94B72A24C080919F08882301F180919C0880932D0610929F0881E698
:205960000E94F86C8BE29BE212C01C1494F480919B08882341F00E948C2B882321F48091F3
:205980009C080E946C2A10929F088FE29CE50E947E1638E0D32E77247A9423E6822E992482
:2059A000BB24BA9466246394E0901105E90CFF24F701EE0FFF1FEE0FFF1FEE0DFF1DE95C11
:2059C000FA4F4081842F807C09F462C146FF06C04F7380E06D2D20E00E941E101C14E4F44F
:2059E000E701CC0FDD1FCC0FDD1FCE0DDF1DC95CDA4F8981C81681F46D2D695F80E048E1A4
:205A00000E943E698B8180939C0888818F7380939D0860929B08B92CF701EE0FFF1FEE0F2D
:205A2000FF1FEE0DFF1DE95CFA4F808187FF05C19481C92FDD27C7FDD095AA24A394928104
:205A4000C912AA2486FD1FC0FE01EE0FFF1FCE01A3E0880F991FAA95E1F7E80FF91FE55520
:205A6000FE4F40814695477050E0485C504F80919F08882311F400E001C00A2D82E16D2DD6
:205A800021E00E945268FE01EE0FFF1FCE0163E0880F991F6A95E1F7E80FF91FE657FE4FBE
:205AA000448D552747FD50958DE26D2D2A2D0E94336B80919F08882311F420E001C02A2D50
:205AC0008DE26D2D45E20E948F67FE01EE0FFF1FCE0143E0880F991F4A95E1F7E80FF91FDD
:205AE000E657FE4F438D80919F08882311F420E001C02A2D86E36D2D0E94EE0FFE01EE0F2E
:205B0000FF1FCE0123E0880F991F2A95E1F7E80FF91FE657FE4F458D442359F080919F08DC
:205B2000882311F420E001C02A2D8EE46D2D0E943E10FE01EE0FFF1FCE01B3E0880F991FD6
:205B4000BA95E1F7E80FF91FE657FE4F468D442391F023E0429FA001112444525E4E8091BD
:205B60009F08882311F400E001C00A2D86E66D2D23E00E945268FE01EE0FFF1FCE0173E055
:205B8000880F991F7A95E1F7E80FF91FEC55FE4F21E08581882309F420E0FE01EE0FFF1F69
:205BA000CE0153E0880F991F5A95E1F7E80FF91FEC55FE4F8681882329F0222309F498C0CB
:205BC0004AE203C0222361F044E480911205882311F420E001C02A2D89E76D2D0E948F6786
:205BE0008A2D813051F55E01AA0CBB1C33E0CC0FDD1F3A95E1F7AC0EBD1EEAE8F1E0AE0E86
:205C0000BF1E812FF501648D43E82DE70E943316F501848FF701EE0FFF1FEE0FFF1FEE0DB4
:205C2000FF1DE95CFA4F848180939C0880818F7380939D0810929B08B92CF701EE0FFF1F06
:205C4000EE0FFF1FEE0DFF1DE95CFA4F8181882331F088150CF4882E87150CF0782EF7012D
:205C6000EE0FFF1FEE0FFF1FEE0DFF1DE95CFA4F8281882331F088150CF4882E87150CF08F
:205C8000782E9394F8E0DF0E292D273009F08CCECC20A1F08B2D8F3FF9F4C81464F480913D
:205CA000110590E00197EFEF8F3F9E0711F480E090E0809311057C14ECF414C0FB2DFF3FCD
:205CC00059F48091110590E001972FEF8F3F920761F480E090E009C08B2D86305CF0992D55
:205CE000983040F0809111058F5F8093110502C043E56BCFDF91CF911F910F91FF90EF901C
:205D0000DF90CF90BF90AF909F908F907F906F9008952F923F924F925F926F927F928F9297
:205D20009F92AF92BF92CF92DF92EF92FF920F931F935C01CC24DD243B018824992464E62B
:205D4000262E312C412C512CC201B1016619770988099909A60195010E94397B7B018C0165
:205D600082E390E0A0E0B0E0E80EF91E0A1F1B1FC601B5010E94397B0E94397BBC01882739
:205D80009927A40193010E94397B44E096958795779567954A95D1F7E60EF71E081F191F32
:205DA000C801B701A20191010E948B7BC9011F910F91FF90EF90DF90CF90BF90AF909F90D2
:205DC0008F907F906F905F904F903F902F9008951F93CF93DF939C016115710511F1132F4A
:205DE000111F1127111F19F0309521953F4F77FF0EC0C0E0D4E0709561957F4FCE01821B2C
:205E0000930B0E94892E9E01281B390B05C0C9010E94892E282F392F112319F03095219506
:205E20003F4FC901DF91CF911F9108956F927F928F929F92AF92BF92CF92DF92EF92FF9213
:205E40000F931F93DF93CF93CDB7DEB7982E962F322F802F6E2D222359F0442361F44091B0
:205E60009004509191044115510539F421E001C020E0FF2405C022E001C021E0FF24F39427
:205E8000332311F0911121E04A2D433679F44C2D50E0440F551F8A0173E0000F111F7A950F
:205EA000E1F7041B150B005C1C4F11C0FA2DF236D9F44C2D50E0440F551F8A0193E0000F9A
:205EC000111F9A95E1F7041B150B0F5B1C4FF80140810E943E10FF2009F463C0F8016081B4
:205EE000892D4AEE26E159C069887724BB24882051F54C2D50E0440F551F6A01B3E0CC0CF5
:205F0000DD1CBA95E1F7C41AD50AAA0CBB1CAA0CBB1CCA0CDB1CC60CD71C44E353E0C40ECC
:205F2000D51EF6014081552747FD50950E94336BFF20B9F1F6016081892D4CE924E60E9499
:205F40003316F6012DC0DD24AA0CBB1CA601E3E0440F551FEA95E1F74C195D09A40EB51EAE
:205F6000A80CB11CAA0CBB1CF301EA0DFB1DEC5CFC4F4081552747FD50954C595F4F0E9422
:205F8000336BFF2071F08501060D171D0C5C1C4F892DF80160814CE920E00E943316F8019A
:205FA0008083CF91DF911F910F91FF90EF90DF90CF90BF90AF909F908F907F906F9008955B
:205FC0002F923F924F925F926F927F928F929F92AF92BF92CF92DF92EF92FF920F931F932F
:205FE000DF93CF93CDB7DEB72A970FB6F894DEBF0FBECDBFD82E8FE29FE00E94F71D89E98E
:2060000098E06D2D40E020E030E000E077E3E72E7FE0F72ECC2453E0A52E0E946A1F409179
:2060200091084F5F80E360E020E00E94EE0FF09099088091910890E0880F991FFC0123E04D
:20604000EE0FFF1F2A95E1F7E81BF90BE05CFC4F808160E040E00E94FD118823C1F0809182
:20606000910890E0880F991FFC0113E0EE0FFF1F1A95E1F7E81BF90BEF5BFC4F808160E059
:2060800040E00E94FD11882321F411E003C010E001C012E060919108462F50E0FA01EE0FF2
:2060A000FF1FED51FB4F808191818A3191051CF01092980807C02FEF873E92071CF481E0D4
:2060C0008093980820916E0130E02170307082E090E0821B930B8417950741F4643030F47B
:2060E00080919B0184FF02C01092980880E16AE27FE00E94B8680F92EDB7FEB7319621E0DC
:20610000F11020E08091980880838D2D61E041E006E3A0E1EA2EC0909108A12E88240E9426
:20612000162F0F9088E163E27FE00E94B8680F92EDB7FEB7319621E03F2D313009F020E024
:206140008091980880838D2D61E041E006E3F8E1EF2EC0909108A12E882483940E94162F2E
:206160000F9080E26DE17FE00E94B8680F92EDB7FEB7319621E08F2D823009F020E01082F4
:206180008D2D61E041E00EE1E0E2EE2EC090910873E6A72E88240E94162F0F9088E267E11B
:2061A0007FE00E94B8680F92EDB7FEB7319621E09F2D933009F020E010828D2D61E041E0C6
:2061C0000EE158E2E52EC090910832E6A32E88240E94162F0F90113019F0123049F404C0F2
:2061E00080E360E17FE007C080E369E07FE003C080E361E07FE00E94B86800919108402FA9
:2062000050E0812F90E0880F991F880F991FBA01660F771F9B01B3E0220F331FBA95E1F7F1
:20622000261B370B820F931F86579E4FFC01E655FE4FA081A983FC01E555FE4FB081BA830A
:20624000FC01E455FE4F9080E4E69E0E83559E4FDC018C908E0E20916E0130E0217030707A
:2062600082E090E0821B930B8417950709F061C0043008F05EC080919B0184FF5AC0EE241A
:20628000FF24870120E030E0B9816B2E772467FC7094A1E24A2E512C292C332427FC309463
:2062A000F0E4CF2ED22ED801C701B595A79597958795B30129873A870E94E82E880F991F72
:2062C000B2010E94787B629DC001639D900D729D900D11246FE3A62EAD0C64E670E00E941D
:2062E000647BEC2DE61B6E2F8A2D0E94F26829853A85C90183709070009761F48A2D6FE336
:206300000E94F2686D2D6695605E8FE30E94F2683A8529852F5F3F4F81E290E0A0E0B0E054
:20632000E80EF91E0A1F1B1F2E33310509F0BACF7CC0DD249981492E552447FC509401E283
:2063400010E0A92DBB27A7FDB095BC83AB8354E6652E712C40E2A42EBA812B2E332427FCD3
:206360003094E82DFF27E7FDF095FE83ED83FD2D21E2F29F70011124C701B2010E94E82E2D
:20638000B8010E94787BAB81BC816A9FC0016B9F900D7A9F900D11243EE5C32ECD0CB30149
:2063A0000E94647BBA2DB61B6B2F8C2D0E94F268ED2DF0E0E370F070F887EF83309749F4C3
:2063C0008C2D60E20E94F2686D2D605E8EE50E94F268C701B1010E94E82EB8010E94787B7F
:2063E0002D813E81629FC001639F900D729F900D11242EE5F22EFD18B3010E94647B605EB1
:206400008F2D0E94F2688F819885009749F48F2D60E20E94F2686A2D6D198EE50E94F2683D
:20642000D3949D2D9F3109F0A2CFE0919108F0E0EE0FFF1FED51FB4F408051805201CC24A0
:20644000B7FCC094DC2CC601B50121E230E040E050E00E94AD7B822F825A61E04EE30E94E2
:2064600042694091910820916E0130E02170307082E090E0821B930B242F30E08217930703
:2064800009F04FC0443008F04CC080919B0184FF48C0C601B50160507C4F8F4F9F4F22E07E
:2064A00030E040E050E00E94AD7BA9816A2F772767FD7095C9010E94E82EBC01660F771F9E
:2064C000882777FD8095982F292D97FC2D5F25952595332727FD3095432F532F0E94397B47
:2064E00029E130E040E050E00E94AD7B79018A01CA01B9012FED3FEF4FEF5FEF0E94AD7B3E
:20650000622F605C8FE34EE30E943E69C801B70122E030E040E050E00E94AD7B79018A0190
:206520003CC01A141B041C041D0414F4698101C06A81772767FD7095C2010E94E82E9C0114
:20654000442737FD4095542F1A141B041C041D0414F4692D01C0682D67FD6D5F659565959E
:20656000772767FD7095872F972F0E94397B29E130E040E050E00E94AD7B79018A01CA013E
:20658000B9012FED3FEF4FEF5FEF0E94AD7B622F605E8FE34EE30E943E69C601B50129E1DF
:2065A00030E040E050E00E94397B612CB1E07B2E812C912CA40193010E94AD7B82E760E345
:2065C000A90120E00E94336BC801B70129E130E040E050E00E94397BA40193010E94AD7B8D
:2065E00084E568E0A90120E00E94336B1A141B041C041D0474F4B9816B2F772767FD70952F
:20660000C20144970E94E82EF701E81BF90BCF010BC0FA816F2F772767FD7095C2014496CD
:206620000E94E82E8E199F099C01220F331F220F331F280F391F442737FD4095542F84E5C1
:2066400060E100E3F3E0EF2E0E94FD692A960FB6F894DEBF0FBECDBFCF91DF911F910F91F7
:20666000FF90EF90DF90CF90BF90AF909F908F907F906F905F904F903F902F9008952F929A
:206680003F924F925F926F927F928F929F92AF92BF92CF92DF92EF92FF920F931F93DF93B7
:2066A000CF93CDB7DEB72F970FB6F894DEBF0FBECDBF982E87EF9EE00E94F71D86E998E0FB
:2066C000692D43E022E53CE00BE0FFEFEF2EFEE0FF2ECC24C394E4E0AE2E0E946A1FF0904B
:2066E0009608FA9430909708292D203841F4F7FC06C0F092910880EE9FE20E947E1685E1CD
:2067000068E047EE5EE00E94C06880E493E09C838B8372E9472E78E0572EE3EEF4E0FB871C
:20672000EA8710E1662477242F2D332727FD30953A832983C901880F991FFC0153E0EE0F84
:20674000FF1F5A95E1F7E81BF90BFE83ED83F62CEB81FC81808160E040E00E94FD11882395
:2067600061F0EB81FC81818160E040E00E94FD11882329F4BB24B39404C0BB2402C042E058
:20678000B42E2B2D30E038872F83C901880F991F880F991FA301440F551F9A0103E0220FBC
:2067A000331F0A95E1F7241B350B820F931F86579E4FDC01A355BE4FFC01E455FE4F3C9152
:2067C0002081321751F4FC01E555FE4F86559E4F41E02081FC018081281340E0EA85FB8534
:2067E00081919191FB87EA879C0197FF04C022273327281B390B2A3131050CF040E0242E52
:206800008A3191051CF0F201108207C0FFEF873E9F071CF421E0F201208380916E0190E0DF
:2068200081709070E2E0F0E0E81BF90BE615F70551F480919B0184FF06C0F301EE56F74F1E
:206840001082222423944F2D4F5F80E0612F20E00E94EE0F5D864C86F2013081F1E0F98746
:206860003111198680911205882351F4DD24D3948091900490919104009721F4DD2402C0ED
:20688000DD24D39489819A818615970511F421E0311020E00F92EDB7FEB73183892D60E049
:2068A0004D2D07E2E12ECF2CAB2C88240E94162F0F9029813A812615370509F0D2C03320A8
:2068C00009F0CBC0DD2009F4CCC0222009F4C9C08F819885880F991F880F991FED81FE812E
:2068E0008E0F9F1F86579E4FF9858F0F911D86559E4F9F878E87892DEE85FF8560814CE9E3
:2069000024E60E943316EE85FF858083AAC021E00F92F2018081EDB7FEB78183892D60E035
:206920004D2D09E3E12ECF2CAB2C882483940E94162F0F9029813A812615370509F097C09B
