:020000040800F2
:10000000A8060020F10200088D0500088F050008F1
:1000100093050008970500089B05000800000000F4
:100020000000000000000000000000009F05000824
:10003000A105000800000000A3050008A5050008B0
:100040001503000815030008150300081503000830
:100050001503000815030008150300081503000820
:100060001503000815030008150300081503000810
:100070001503000815030008150300081503000800
:1000800015030008150300081503000815030008F0
:1000900015030008150300081503000815030008E0
:1000A00015030008150300081503000815030008D0
:1000B00015030008150300081503000815030008C0
:1000C00015030008150300081503000815030008B0
:1000D00015030008150300081503000815030008A0
:1000E0001503000815030008150300081503000890
:1000F0001503000815030008150300081503000880
:10010000150300081503000815030008150300086F
:10011000150300081503000815030008150300085F
:10012000150300081503000815030008150300084F
:10013000150300081503000815030008150300083F
:10014000150300081503000815030008150300082F
:10015000150300081503000815030008150300081F
:10016000150300081503000815030008150300080F
:1001700015030008150300081503000815030008FF
:10018000150300081503000800F002F800F03CF821
:100190000AA090E8000C82448344AAF10107DA45E2
:1001A00001D100F031F8AFF2090EBAE80F0013F0F8
:1001B000010F18BFFB1A43F0010318474018000055
:1001C00060180000103A24BF78C878C1FAD85207E6
:1001D00024BF30C830C144BF04680C6070470000C1
:1001E0000023002400250026103A28BF78C1FBD840
:1001F000520728BF30C148BF0B6070471FB501F0E0
:10020000F8FB1FBD10B510BD01F0BDFB1146FFF797
:10021000F5FF00F02FF801F0DBFB03B4FFF7F2FF6E
:1002200003BC01F0DFFB00001CB50121022000F03F
:100230006DFB0121042000F036FBC020009002205D
:100240008DF8040003208DF8050000208DF80600CD
:1002500001208DF807006946214800F0DFF80222EE
:1002600006211F4800F05DF9022207211C4800F01A
:1002700058F91CBD10B5FFF7D7FF40F2CF701949F0
:10028000486040F2473008800020088148801648C6
:1002900000F0F3FC60201549088001204880C72049
:1002A000886000208881104800F07CFD08210E48FD
:1002B00000F00CFF01200D494880632088600A4847
:1002C00000F0AFFD0821084800F009FF01210648B1
:1002D00000F03EFD0121044800F058FD002010BD53
:1002E00000080240240000200004004030000020EC
:1002F0000C48016841F4700101600B4880470B48CD
:100300000047FEE7FEE7FEE7FEE7FEE7FEE7FEE763
:10031000FEE7FEE7FEE7000005480649064A074BF0
:100320007047000088ED00E05718000889010008B8
:10033000A8000020A8060020A8020020A802002093
:1003400010B504468848844208D10121084600F0CF
:10035000FFFA0021012000F0FBFA5EE083488442AE
:1003600008D10121022000F0F3FA0021022000F060
:10037000EFFA52E07E48844208D10121042000F0C7
:10038000E7FA0021042000F0E3FA46E079488442CD
:1003900008D10121082000F0DBFA0021082000F03C
:1003A000D7FA3AE07448844208D10121102000F0C5
:1003B000CFFA0021102000F0CBFA2EE06F488442E3
:1003C00008D10121202000F0C3FA0021202000F0F4
:1003D000BFFA22E06A48844208D10121402000F09F
:1003E000B7FA0021402000F0B3FA16E065488442D5
:1003F00008D10121802000F0ABFA0021802000F01C
:10040000A7FA0AE06048844207D10121801500F074
:100410009FFA0021A01500F09BFA10BD70B50A46A6
:10042000002100238C4600BF3DE0012404FA01F3C3
:10043000146804EA030C9C4534D104684E0003257B
:10044000B540AC43046014794D00AC4005682C43C2
:1004500004601479012C02D01479022C16D184681E
:100460004E000325B540AC43846054794D00AC4048
:1004700085682C438460446801258D40AC4344600A
:10048000446895798D40ADB22C434460C4684E00F9
:100490000325B540AC43C460D4794D00AC40C56879
:1004A0002C43C460491C1029BFD370BD4FF6FF71A7
:1004B00001600021017141718171C17170474FF478
:1004C00080320A43C261C161C261C269C2697047B8
:1004D0000246002013690B4201D0012000E00020F9
:1004E00070470146086980B2704702460020536990
:1004F0000B4201D0012000E000207047014648690E
:1005000080B2704701837047418370470AB101830D
:1005100000E0418370474161704742694A4042614F
:10052000704770B500239C464C07E40E02FA04F3B2
:10053000CD1000F1200454F825404D07EE0E0F2594
:10054000B540AC43CE1000F1200545F82640CD1053
:1005500000F1200454F8254044EA030CCD1000F1CA
:10056000200444F825C070BD000002400004024091
:1005700000080240000C024000100240001402403B
:1005800000180240001C024000200240704700BFDB
:10059000FEE700BFFEE700BFFEE700BFFEE77047D3
:1005A0007047704770470000FA48006840F001004B
:1005B000F84908600020F74908310860F5480068EC
:1005C000F5490840F3490860F448091D0860081F10
:1005D000006820F48020091F08600020ED490C31DC
:1005E000086070470021EB4A921C11701146087098
:1005F000704710B501460022002300204A11012A4D
:1006000002D1E44C236808E0022A03D1E14C7034A3
:10061000236802E0DF4C7434236801F01F020124D8
:1006200094401C4201D0012000E0002010BD70B5B4
:1006300000240025002600BF3120FFF7DAFF064620
:10064000641CB4F5A06F01D0002EF5D03120FFF767
:10065000D0FF08B1012500E00025284670BD014605
:100660000020CC4A106820F0F80040EAC100106079
:100670007047CB49086070470021C64A703211703C
:100680001170012802D004280AD104E00121C14AD6
:100690007032117005E00521BE4A7032117000E021
:1006A00000BF00BF7047BF490860704730B5DDF834
:1006B0000CC041EA82140125C5EB530544EA054408
:1006C000044344EA0C64B34D2D1D2C6030BDB44985
:1006D00008667047820142EA0172AE4B84331A60A9
:1006E0007047AF4988667047AD49C8647047024695
:1006F0000020A84B0833186820F0EC6042EA0103A0
:100700001843A44B08331860704702460020A14BE1
:100710000833186820F0784042EA010318439D4BE3
:10072000083318607047014600209A4A0832106862
:1007300020F00300084310607047964808300068B6
:1007400000F00C00704701460020924A0832106801
:1007500020F0F000084310607047014600208D4AE9
:100760000832106820F4E0500843106070470146DA
:100770000020884A0832106820F4604040EAC10036
:1007800010607047F0B500210022002402258C463D
:100790000223804E0836366806F00C0121B1042988
:1007A00005D0082933D105E07F4E066032E07F4E48
:1007B00006602FE0774E361D3668C6F3805C754EB6
:1007C000361D366806F03F03BCF1000F0AD0774EA5
:1007D000B6FBF3F66F4F3F1D3F68C7F3881706FB64
:1007E00007F409E0704EB6FBF3F66A4F3F1D3F6811
:1007F000C7F3881706FB07F4664E361D3668C6F346
:100800000146761C7500B4FBF5F6066002E0664E04
:10081000066000BF00BF5F4E0836366806F0F00184
:100820000909634E725C0668D6404660594E083628
:10083000366806F4E051890A5D4E725C4668D6401F
:100840008660544E0836366806F46041490B584EAF
:10085000725C4668D640C660F0BD002100F440726C
:10086000B2F5407F0AD14B4A0832116821F4F811E1
:10087000504A02401143474A08321160454A7032DB
:100880001268C0F30B031A43424B70331A6070476F
:10089000444944390860704742494039086070470C
:1008A00045490860704739B13A4A3032126802430C
:1008B000384B30331A6006E0364A303212688243D1
:1008C000344B30331A60704739B1324A34321268CF
:1008D0000243304B34331A6006E02E4A3432126839
:1008E00082432C4B34331A60704739B1294A38326D
:1008F00012680243274B38331A6006E0254A383223
:1009000012688243234B38331A60704739B1214A49
:100910004032126802431F4B40331A6006E01D4A02
:100920004032126882431B4B40331A60704739B122
:10093000184A443212680243164B44331A6006E0E8
:10094000144A443212688243124B44331A6070478F
:1009500039B1104A1032126802430E4B10331A603C
:1009600006E00C4A1032126882430A4B10331A60B8
:10097000704739B1074A143212680243054B1433E9
:100980001A6006E0034A143212688243014B1433A2
:100990001A60704700380240FFFFF6FE1030002456
:1009A00000004742800E47420024F40000127A0003
:1009B00000000020FFFCFF0F5C01474229B1574AAD
:1009C00012680243554B1A6004E0544A126882438D
:1009D000524B1A60704739B1504A083212680243CC
:1009E0004E4B08331A6006E04C4A083212688243C4
:1009F0004A4B08331A60704739B1484A0C321268C2
:100A00000243464B0C331A6006E0444A0C3212682B
:100A10008243424B0C331A60704739B13F4A383237
:100A2000126802433D4B38331A6006E03B4A3832C5
:100A300012688243394B38331A60704739B1374AEC
:100A40003C3212680243354B3C331A6006E0334AAD
:100A50003C3212688243314B3C331A60704739B1E3
:100A60002E4A4032126802432C4B40331A6006E093
:100A70002A4A403212688243284B40331A6070473A
:100A800039B1264A483212680243244B48331A606F
:100A900006E0224A483212688243204B48331A60EB
:100AA000704739B11D4A4C32126802431B4B4C331C
:100AB0001A6006E0194A4C3212688243174B4C33D5
:100AC0001A60704739B1154A0B3A12780243134B3A
:100AD0000B3B1A7008E0114A0B3A1278C343DBB2A1
:100AE0001A400E4B0B3B1A7070470C485C30006884
:100AF00040F0807009495C31086070470146002071
:100B0000064A0C3A12680A4201D0012000E0002097
:100B1000704702490A3908707047000018380240CF
:100B200010B50446FE48844208D101210846FFF76B
:100B300063FF00210120FFF75FFF9DE0B4F1804FCC
:100B400008D101210846FFF746FF00210120FFF7E9
:100B500042FF91E0F348844208D101210220FFF7CF
:100B60003AFF00210220FFF736FF85E0EE4884427D
:100B700008D101210420FFF72EFF00210420FFF7F8
:100B80002AFF79E0E948844208D101210820FFF7D3
:100B900022FF00210820FFF71EFF6DE0E448844299
:100BA00008D101211020FFF716FF00211020FFF7C8
:100BB00012FF61E0DF48844208D101212020FFF7C5
:100BC0000AFF00212020FFF706FF55E0DA488442A3
:100BD00008D101210220FFF70FFF00210220FFF7BB
:100BE0000BFF49E0D548844209D101210804FFF7F1
:100BF00003FF00214FF48030FFF7FEFE3CE0D048B9
:100C0000844209D101214804FFF7F6FE00214FF488
:100C10000030FFF7F1FE2FE0CA48844209D10121DC
:100C20008804FFF7E9FE00214FF48020FFF7E4FE7F
:100C300022E0C548844208D101214020FFF7CBFEC5
:100C400000214020FFF7C7FE16E0C048844208D1CB
:100C500001218020FFF7BFFE00218020FFF7BBFEAF
:100C60000AE0BB48844207D101218015FFF7B3FE9B
:100C70000021A015FFF7AFFE10BD00220288A84B8F
:100C800098420ED0AC4B98420BD0B0F1804F08D0B8
:100C9000A44B984205D0A44B984202D0A34B984253
:100CA00004D14FF68F731A404B881A43A04B9842D9
:100CB00007D0A04B984204D04FF6FF431A400B894F
:100CC0001A4302804B68C3620B880385944B984299
:100CD00002D0994B984201D18B7A038601238382FB
:100CE00070474FF0FF314160002101800181418058
:100CF000817270470185828270470A46002101880F
:100D00004FF68F731940114301807047416270475D
:100D1000C16270470146486A70470146088D7047B6
:100D200021B1028842F00202028004E002884FF6FC
:100D3000FD731A400280704721B1028842F004021C
:100D4000028004E002884FF6FB731A40028070476D
:100D500021B1028842F08002028004E002884FF64E
:100D60007F731A400280704702884FF6F7731A406B
:100D7000028002880A430280704702884FF6FF43D0
:100D80001A40028002880A430280704721B102881B
:100D900042F00102028004E002884FF6FE731A401E
:100DA0000280704730B54FF0000C00220023048C05
:100DB0004FF6FE752C400484028C8388B0F818C06E
:100DC0004FF68F740CEA040CAC1E0CEA040C0C8871
:100DD00044EA0C0C6C1E22408C8922434C8822432E
:100DE0004F4CA04202D0544CA04213D14FF6F7749E
:100DF0002240CC8922434FF6FB7422408C88224348
:100E00004FF6FF6423404FF6FF5423400C8A2343E0
:100E10004C8A23438380A0F818C08C684463028402
:100E200030BD30B54FF0000C00220023048C4FF68B
:100E3000EF752C400484028C8388B0F818C048F603
:100E4000FF740CEA040C4FF6FF440CEA040C0C8807
:100E500024064CEA144C4FF6DF7422408C8924059A
:100E600042EA14424C88240542EA14422C4CA04227
:100E700002D0314CA0421BD14FF67F742240CC8966
:100E8000240542EA14424FF6BF7422408C882405A0
:100E900042EA14424FF6FF3423404FF2FF742340DE
:100EA0000C8AA40443EA14434C8AA40443EA14437E
:100EB0008380A0F818C08C688463028430BD30B58C
:100EC0004FF0000C00220023048C4FF6FF652C40ED
:100ED0000484028C8388B0F81CC04FF68F740CEA2F
:100EE000040C4FF6FC740CEA040C0C8844EA0C0C5D
:100EF0004FF6FF5422408C89240642EA14424C8863
:100F0000240642EA1442064CA04202D00A4CA042F7
:100F100037D14FF2FF742240CC8924061AE000003A
:100F2000000001400004004000080040000C0040A8
:100F30000010004000140040000401400040014047
:100F4000004401400048014000180040001C0040DF
:100F50000020004042EA14424FF6FF3422408C88C1
:100F6000240642EA14424EF6FF7423404DF6FF7405
:100F700023400C8A240543EA14434C8A240543EA9F
:100F800014438380A0F81CC08C68C463028430BD05
:100F900030B5002200239446048C4EF6FF752C4099
:100FA0000484038CB0F804C0828B48F6FF7422409E
:100FB0004FF6FF4422400C88240642EA14424DF6C4
:100FC000FF7423408C89240743EA14434C88240788
:100FD00043EA1443FE4CA04202D0FE4CA04207D18B
:100FE0004BF6FF740CEA040C0C8AA4054CEA144C72
:100FF000A0F804C082838C680464038430BD00219F
:1010000001804180818081608181C1810182418232
:10101000704730B503460020844618461830012436
:101020008C401FFA84FC1C8C6FEA0C05ADB22C407E
:101030001C8409B108290AD100EB610004684FF64D
:101040008F752C4004600468144304600DE00C1F8D
:10105000A4B200EB6400046848F6FF752C400460FD
:101060000468150644EA1544046030BD41637047C6
:1010700081637047C1637047016470470A4600216D
:10108000018B4FF68F7319401143018370470A4655
:101090000021018B48F6FF731940130641EA134102
:1010A000018370470A460021818B4FF68F731940E8
:1010B0001143818370470A460021818B48F6FF73F4
:1010C0001940130641EA1341818370470A46002103
:1010D000018B4FF6F77319401143018370470A469D
:1010E0000021018B4FF2FF731940130641EA1341AF
:1010F000018370470A460021818B4FF6F773194030
:101100001143818370470A460021818B4FF2FF73A0
:101110001940130641EA1341818370470A460021B2
:10112000018B4FF6FB7319401143018370470A4648
:101130000021018B4FF6FF331940130641EA13419A
:10114000018370470A460021818B4FF6FB731940DB
:101150001143818370470A460021818B4FF6FF338C
:101160001940130641EA1341818370470A46002162
:10117000018B4FF67F7319401143018370470A4674
:101180000021018BC1F30E01130641EA13410183D3
:1011900070470A460021818B4FF67F731940114337
:1011A000818370470A460021818BC1F30E0113062B
:1011B00041EA1341818370470A460021018C4FF6B2
:1011C000FD7319401143018470470A460021018CC8
:1011D0004FF6F77319401143018470470A46002106
:1011E000018C4FF6DF731940130541EA1341018466
:1011F00070470A460021018C4FF67F731940130592
:1012000041EA1341018470470A460021018C4FF6E0
:10121000FF531940130641EA1341018470470A46FF
:101220000021018C4FF2FF731940130641EA13416C
:10123000018470470A460021018C4DF6FF73194066
:10124000130741EA13410184704730B5002301249C
:101250008C40A3B2048CDD43ADB22C400484048CDA
:1012600002FA01F5ADB22C43048430BD30B5002341
:1012700004248C40A3B2048CDD43ADB22C40048422
:10128000048C02FA01F5ADB22C43048430BD828B8C
:101290004FF2FF331A408283828B0B0642EA1342DD
:1012A00082837047F0B50C461546002100228C461B
:1012B000068C4EF6FF773E400684818B028C260713
:1012C0004FEA164C40F6FF4631402E0641EA1641E1
:1012D0001E0741EA164145F6FF7632404CF480562F
:1012E000324381830284F0BD828B4FF6F3731A4040
:1012F0008283828B0A4382837047F0B50C46154681
:10130000002100228C46068C4FF6FF673E40068483
:10131000818B028C26064FEA164C4FF60C76314034
:101320001E0545EA164631434FF2FF5632404CF453
:101330008076324381830284F0BD028B4FF2FF330B
:101340001A400283028B0B0642EA13420283704763
:10135000F0B50C461546002100228C46068C4FF64F
:10136000EF773E400684018B028C26054FEA164C2F
:1013700040F6FF4631401E0741EA16412E0641EA7B
:1013800016414FF65F7632404CF01006324301832F
:101390000284F0BD028B4FF6F3731A400283028B76
:1013A0000A430283704770B58C4614460021002220
:1013B000058C4FF6FE7635400584018B028C4FF686
:1013C0000C7529401D0544EA1545294304E0000039
:1013D00000000140000401404FF6F5752A404CF032
:1013E00001052A430183028470BD70B505460C4691
:1013F000208850B92389A28861882846FFF7D3FF47
:10140000E1882846FFF7C6FF25E0208804280AD196
:101410002389A28861882846FFF79AFFE188284639
:10142000FFF78BFF17E0208808280AD12389A288BC
:1014300061882846FFF761FFE1882846FFF754FFDF
:1014400009E02389A28861882846FFF72BFFE188FD
:101450002846FFF71CFF70BD00210180418001215B
:1014600081800021C180018170472DE9F04105464E
:101470000C4600260127608808B9022600E00026F5
:10148000A088012801D1022700E001272088A0B907
:101490002389A28861882846FFF785FFE1882846CE
:1014A000FFF778FF23893A4631462846FFF750FF79
:1014B000E1882846FFF741FF13E02389A28861886D
:1014C0002846FFF745FFE1882846FFF736FF2389C6
:1014D0003A4631462846FFF766FFE1882846FFF77F
:1014E00059FFBDE8F0810146486B70470146886BA3
:1014F00070470146C86B70470146086C70470A8800
:101500004B881A438B881A43CB881A430B891A439A
:101510004B891A438B891A43A0F844207047002155
:10152000018041808180C18001814181818170473A
:1015300031B1B0F8442042F40042A0F8442005E064
:10154000B0F84420C2F30E02A0F84420704721B145
:10155000828842F00402828004E082884FF6FB73A6
:101560001A408280704721B1828842F00102828055
:1015700004E082884FF6FE731A408280704710B5EF
:101580001AB183890B43838104E08389CC43A4B2DD
:101590002340838110BD8182704702460020138A58
:1015A0000B4201D0012000E000207047CA430282B4
:1015B000704710B50246002000238446148A04EACE
:1015C0000103948904EA010C23B1BCF1000F01D09E
:1015D000012000E0002010BDCA430282704741EAAA
:1015E0000203A0F84830704710B51AB183890B4345
:1015F000838104E08389CC43A4B22340838110BD5E
:1016000021B1828842F00802828004E082884FF68D
:10161000F7731A408280704701894FF6F8721140C3
:10162000018170470A46002101894FF68F731940E6
:1016300011430181704730B504460D4629462046C6
:10164000FFF7F0FF208940F00700208130BD2DE931
:10165000F04104460D4616461F46602D06D13B4616
:10166000012231462046FFF773FE05E03B4601228A
:1016700031462046FFF797FE29462046FFF7D2FF66
:10168000208940F007002081BDE8F08110B58C462C
:1016900000210189C9B21C0642EA144444EA0C0440
:1016A0002143018110BD2DE9F04105460E46174644
:1016B0009846002443463A4631462846FFF7E6FF5F
:1016C0002C894FF6F870044044F007044FF68F70F1
:1016D000044044F070042C81BDE8F081F0B504466C
:1016E0000D4616461F463B46324629462046FFF722
:1016F000CDFF208940F480402081F0BD82884FF6E4
:101700008F731A40828082880A43828070470289E0
:101710004FF6F8731A40028102890A43028170472A
:1017200002894FF67F731A40028102890A430281BF
:10173000704770B58C4614461D46002100220023D8
:101740000189028B038C4FF6F876314041EA0C0197
:101750004FF6FC46324040F2011632434FF6DD763A
:1017600033402E0544EA1646334301810283038445
:1017700070BD21B1828842F08002828004E08288BC
:101780004FF67F731A4082807047A0F85010704760
:10179000002100206F4A126842F480326D4B1A60BB
:1017A00000BF6C4A126802F40030491C10B9B1F550
:1017B000A06FF6D1674A126812F4003F01D00120F1
:1017C00000E00020012845D1624A4032126842F010
:1017D0008052604B40331A605F4A126842F4804284
:1017E0005D4B1A605B4A083212685A4B08331A6024
:1017F0001A46126842F400421A601A46126842F40D
:10180000A0521A60554A1B1F1A601A1F126842F034
:1018100080721B1F1A6000BF4E4A126812F0007FD0
:10182000FAD040F205624E4B1A604A4A08321268FA
:1018300022F00302474B08331A601A46126842F03E
:1018400002021A6000BF434A0832126802F00C021A
:10185000082AF8D1704710B53E48006840F00100F2
:101860003C49086000203B4908310860394800685D
:101870003C490840374908603B48091D0860081F7B
:10188000006820F48020091F0860002031490C31D5
:101890000860FFF77DFF4FF000603449086010BD1D
:1018A00030B500200022022384460221294C08344E
:1018B000246804F00C0020B1042806D0082836D192
:1018C00007E02B4C2B4D2C6035E02B4C294D2C6028
:1018D00031E0204C241D2468C4F3805C1D4C241D81
:1018E000246804F03F01BCF1000F0AD0224CB4FB85
:1018F000F1F4184D2D1D2D68C5F3881504FB05F274
:1019000009E01B4CB4FBF1F4124D2D1D2D68C5F3FD
:10191000881504FB05F20F4C241D2468C4F3014410
:10192000641C6300B2FBF3F4124D2C6003E0104C16
:10193000104D2C6000BF00BF064C08342468C4F36F
:1019400003140E4D285D0B4C2468C440094D2C60D7
:1019500030BD0000003802400070004008544007CD
:10196000003C0240FFFFF6FE1030002408ED00E0CE
:101970000024F4001000002000127A00140000205F
:10198000704770477047754600F028F8AE4605006E
:101990006946534620F00700854618B020B5FEF78B
:1019A000BBFCBDE820404FF000064FF000074FF0B1
:1019B00000084FF0000B21F00701AC46ACE8C0096D
:1019C000ACE8C009ACE8C009ACE8C0098D46704776
:1019D0000446AFF300802046FEF71FFC0048704726
:1019E0004400002001491820ABBEFEE7260002009B
:1019F00070474FF04070E1EE100A70471C1A000863
:101A00000000002024000000C4010008401A000863
:101A10002400002084060000E0010008000000000F
:101A2000010203040102030406070809007A030AFD
:101A3000000000000000000001020304060708097E
:040000050800018965
:00000001FF
